{
  "contractName": "ContratoDelDesarrollador",
  "abi": [
    {
      "inputs": [
        {
          "internalType": "address",
          "name": "_miDireccion",
          "type": "address"
        },
        {
          "internalType": "string",
          "name": "_lawpaper",
          "type": "string"
        },
        {
          "internalType": "uint256",
          "name": "DyOchoDinero",
          "type": "uint256"
        },
        {
          "internalType": "uint256",
          "name": "SIXdinero",
          "type": "uint256"
        },
        {
          "internalType": "uint256",
          "name": "_rendimiento",
          "type": "uint256"
        },
        {
          "internalType": "address",
          "name": "creator",
          "type": "address"
        }
      ],
      "stateMutability": "nonpayable",
      "type": "constructor"
    },
    {
      "anonymous": false,
      "inputs": [
        {
          "indexed": false,
          "internalType": "address",
          "name": "",
          "type": "address"
        },
        {
          "indexed": false,
          "internalType": "uint256",
          "name": "",
          "type": "uint256"
        },
        {
          "indexed": false,
          "internalType": "string",
          "name": "",
          "type": "string"
        }
      ],
      "name": "ElDesarrolladorYaDevolvioElDinero",
      "type": "event"
    },
    {
      "anonymous": false,
      "inputs": [
        {
          "indexed": false,
          "internalType": "address",
          "name": "",
          "type": "address"
        },
        {
          "indexed": false,
          "internalType": "address",
          "name": "",
          "type": "address"
        },
        {
          "indexed": false,
          "internalType": "uint256",
          "name": "",
          "type": "uint256"
        },
        {
          "indexed": false,
          "internalType": "uint256",
          "name": "",
          "type": "uint256"
        },
        {
          "indexed": false,
          "internalType": "string",
          "name": "",
          "type": "string"
        }
      ],
      "name": "ElDesarrolladorYaSacoElDinero",
      "type": "event"
    },
    {
      "anonymous": false,
      "inputs": [
        {
          "indexed": false,
          "internalType": "string",
          "name": "",
          "type": "string"
        }
      ],
      "name": "nadieInvirtioCon",
      "type": "event"
    },
    {
      "inputs": [],
      "name": "addressDelDesarrollador",
      "outputs": [
        {
          "internalType": "address",
          "name": "",
          "type": "address"
        }
      ],
      "stateMutability": "view",
      "type": "function"
    },
    {
      "inputs": [],
      "name": "cantidadObjetivoDyO",
      "outputs": [
        {
          "internalType": "uint256",
          "name": "",
          "type": "uint256"
        }
      ],
      "stateMutability": "view",
      "type": "function"
    },
    {
      "inputs": [],
      "name": "cantidadObjetivoSIX",
      "outputs": [
        {
          "internalType": "uint256",
          "name": "",
          "type": "uint256"
        }
      ],
      "stateMutability": "view",
      "type": "function"
    },
    {
      "inputs": [],
      "name": "rendimiento",
      "outputs": [
        {
          "internalType": "uint256",
          "name": "",
          "type": "uint256"
        }
      ],
      "stateMutability": "view",
      "type": "function"
    },
    {
      "inputs": [
        {
          "internalType": "contract IERC20",
          "name": "token",
          "type": "address"
        },
        {
          "internalType": "uint256",
          "name": "amount",
          "type": "uint256"
        },
        {
          "internalType": "uint256",
          "name": "nonce",
          "type": "uint256"
        },
        {
          "internalType": "uint256",
          "name": "deadline",
          "type": "uint256"
        },
        {
          "internalType": "bytes",
          "name": "signature",
          "type": "bytes"
        }
      ],
      "name": "Invest",
      "outputs": [],
      "stateMutability": "nonpayable",
      "type": "function"
    },
    {
      "inputs": [],
      "name": "withdrawForOwner",
      "outputs": [],
      "stateMutability": "nonpayable",
      "type": "function"
    },
    {
      "inputs": [
        {
          "internalType": "contract IERC20",
          "name": "token",
          "type": "address"
        },
        {
          "internalType": "uint256",
          "name": "amount",
          "type": "uint256"
        },
        {
          "internalType": "uint256",
          "name": "nonce",
          "type": "uint256"
        },
        {
          "internalType": "uint256",
          "name": "deadline",
          "type": "uint256"
        },
        {
          "internalType": "bytes",
          "name": "signature",
          "type": "bytes"
        }
      ],
      "name": "devolverCantidadSix",
      "outputs": [],
      "stateMutability": "nonpayable",
      "type": "function"
    },
    {
      "inputs": [
        {
          "internalType": "contract IERC20",
          "name": "token",
          "type": "address"
        },
        {
          "internalType": "uint256",
          "name": "amount",
          "type": "uint256"
        },
        {
          "internalType": "uint256",
          "name": "nonce",
          "type": "uint256"
        },
        {
          "internalType": "uint256",
          "name": "deadline",
          "type": "uint256"
        },
        {
          "internalType": "bytes",
          "name": "signature",
          "type": "bytes"
        }
      ],
      "name": "devolverCantidadDyOcho",
      "outputs": [],
      "stateMutability": "nonpayable",
      "type": "function"
    },
    {
      "inputs": [
        {
          "internalType": "contract IERC20",
          "name": "token",
          "type": "address"
        },
        {
          "internalType": "uint256",
          "name": "amount",
          "type": "uint256"
        },
        {
          "internalType": "uint256",
          "name": "nonce",
          "type": "uint256"
        },
        {
          "internalType": "uint256",
          "name": "deadline",
          "type": "uint256"
        },
        {
          "internalType": "bytes",
          "name": "signature",
          "type": "bytes"
        }
      ],
      "name": "DevolverPorContratiempoSix",
      "outputs": [],
      "stateMutability": "nonpayable",
      "type": "function"
    },
    {
      "inputs": [
        {
          "internalType": "contract IERC20",
          "name": "token",
          "type": "address"
        },
        {
          "internalType": "uint256",
          "name": "amount",
          "type": "uint256"
        },
        {
          "internalType": "uint256",
          "name": "nonce",
          "type": "uint256"
        },
        {
          "internalType": "uint256",
          "name": "deadline",
          "type": "uint256"
        },
        {
          "internalType": "bytes",
          "name": "signature",
          "type": "bytes"
        }
      ],
      "name": "DevolverPorContratiempoDyOcho",
      "outputs": [],
      "stateMutability": "nonpayable",
      "type": "function"
    },
    {
      "inputs": [],
      "name": "withdrawForinvestors",
      "outputs": [],
      "stateMutability": "nonpayable",
      "type": "function"
    },
    {
      "inputs": [],
      "name": "withdrawInvestorsNotWin",
      "outputs": [],
      "stateMutability": "nonpayable",
      "type": "function"
    },
    {
      "inputs": [],
      "name": "sixContractBalance",
      "outputs": [
        {
          "internalType": "uint256",
          "name": "",
          "type": "uint256"
        }
      ],
      "stateMutability": "view",
      "type": "function"
    },
    {
      "inputs": [],
      "name": "DyOchoContractBalance",
      "outputs": [
        {
          "internalType": "uint256",
          "name": "",
          "type": "uint256"
        }
      ],
      "stateMutability": "view",
      "type": "function"
    },
    {
      "inputs": [],
      "name": "YaSacoElDinero",
      "outputs": [
        {
          "internalType": "bool",
          "name": "",
          "type": "bool"
        }
      ],
      "stateMutability": "view",
      "type": "function"
    },
    {
      "inputs": [],
      "name": "verCuantoTeGanarasSix",
      "outputs": [
        {
          "internalType": "uint256",
          "name": "",
          "type": "uint256"
        }
      ],
      "stateMutability": "view",
      "type": "function"
    },
    {
      "inputs": [],
      "name": "verCuantoDevolverasSix",
      "outputs": [
        {
          "internalType": "uint256",
          "name": "",
          "type": "uint256"
        }
      ],
      "stateMutability": "view",
      "type": "function"
    },
    {
      "inputs": [],
      "name": "verCuantoDevolverasDyOcho",
      "outputs": [
        {
          "internalType": "uint256",
          "name": "",
          "type": "uint256"
        }
      ],
      "stateMutability": "view",
      "type": "function"
    },
    {
      "inputs": [],
      "name": "verCuantoTeGanarasDyOcho",
      "outputs": [
        {
          "internalType": "uint256",
          "name": "",
          "type": "uint256"
        }
      ],
      "stateMutability": "view",
      "type": "function"
    },
    {
      "inputs": [],
      "name": "SIXverCuantoInvertiste",
      "outputs": [
        {
          "internalType": "uint256",
          "name": "",
          "type": "uint256"
        }
      ],
      "stateMutability": "view",
      "type": "function"
    },
    {
      "inputs": [],
      "name": "DyOchoverCuantoInvertiste",
      "outputs": [
        {
          "internalType": "uint256",
          "name": "",
          "type": "uint256"
        }
      ],
      "stateMutability": "view",
      "type": "function"
    },
    {
      "inputs": [],
      "name": "YaSacasteTuRendimientoSix",
      "outputs": [
        {
          "internalType": "bool",
          "name": "",
          "type": "bool"
        }
      ],
      "stateMutability": "view",
      "type": "function"
    },
    {
      "inputs": [],
      "name": "YaSacasteTuRendimientoDyOcho",
      "outputs": [
        {
          "internalType": "bool",
          "name": "",
          "type": "bool"
        }
      ],
      "stateMutability": "view",
      "type": "function"
    },
    {
      "inputs": [],
      "name": "verTerminosYcondiciones",
      "outputs": [
        {
          "internalType": "string",
          "name": "",
          "type": "string"
        }
      ],
      "stateMutability": "view",
      "type": "function"
    }
  ],
  "bytecode": "0x6101c06040526e22d473030f116ddee9f6b43ac78ba373ffffffffffffffffffffffffffffffffffffffff1660809073ffffffffffffffffffffffffffffffffffffffff1681525073812c9d3345e29d3029dde235d01e99d02daf08f773ffffffffffffffffffffffffffffffffffffffff1660a09073ffffffffffffffffffffffffffffffffffffffff1681525073237c89df66ab0cf2925367cf169512d7a6f2a1de73ffffffffffffffffffffffffffffffffffffffff1660c09073ffffffffffffffffffffffffffffffffffffffff1681525073a098213f826cdf0acfe2619b502971e537b1f36373ffffffffffffffffffffffffffffffffffffffff1660e09073ffffffffffffffffffffffffffffffffffffffff1681525073942e0179dbf64ca9b14da9f2b500672cdadf2e0b73ffffffffffffffffffffffffffffffffffffffff166101009073ffffffffffffffffffffffffffffffffffffffff168152506000600860006101000a81548160ff021916908360ff1602179055506000600860016101000a81548160ff0219169083151502179055506000600860026101000a81548160ff0219169083151502179055506001600860036101000a81548160ff021916908315150217905550348015620001de57600080fd5b5060405162005793380380620057938339818101604052810190620002049190620004da565b8573ffffffffffffffffffffffffffffffffffffffff166101208173ffffffffffffffffffffffffffffffffffffffff168152505084600090816200024a9190620007d6565b50836101808181525050826101608181525050816101a081815250508073ffffffffffffffffffffffffffffffffffffffff166101408173ffffffffffffffffffffffffffffffffffffffff1681525050505050505050620008bd565b6000604051905090565b600080fd5b600080fd5b600073ffffffffffffffffffffffffffffffffffffffff82169050919050565b6000620002e882620002bb565b9050919050565b620002fa81620002db565b81146200030657600080fd5b50565b6000815190506200031a81620002ef565b92915050565b600080fd5b600080fd5b6000601f19601f8301169050919050565b7f4e487b7100000000000000000000000000000000000000000000000000000000600052604160045260246000fd5b62000375826200032a565b810181811067ffffffffffffffff821117156200039757620003966200033b565b5b80604052505050565b6000620003ac620002a7565b9050620003ba82826200036a565b919050565b600067ffffffffffffffff821115620003dd57620003dc6200033b565b5b620003e8826200032a565b9050602081019050919050565b60005b8381101562000415578082015181840152602081019050620003f8565b60008484015250505050565b6000620004386200043284620003bf565b620003a0565b90508281526020810184848401111562000457576200045662000325565b5b62000464848285620003f5565b509392505050565b600082601f83011262000484576200048362000320565b5b81516200049684826020860162000421565b91505092915050565b6000819050919050565b620004b4816200049f565b8114620004c057600080fd5b50565b600081519050620004d481620004a9565b92915050565b60008060008060008060c08789031215620004fa57620004f9620002b1565b5b60006200050a89828a0162000309565b965050602087015167ffffffffffffffff8111156200052e576200052d620002b6565b5b6200053c89828a016200046c565b95505060406200054f89828a01620004c3565b94505060606200056289828a01620004c3565b93505060806200057589828a01620004c3565b92505060a06200058889828a0162000309565b9150509295509295509295565b600081519050919050565b7f4e487b7100000000000000000000000000000000000000000000000000000000600052602260045260246000fd5b60006002820490506001821680620005e857607f821691505b602082108103620005fe57620005fd620005a0565b5b50919050565b60008190508160005260206000209050919050565b60006020601f8301049050919050565b600082821b905092915050565b600060088302620006687fffffffffffffffffffffffffffffffffffffffffffffffffffffffffffffffff8262000629565b62000674868362000629565b95508019841693508086168417925050509392505050565b6000819050919050565b6000620006b7620006b1620006ab846200049f565b6200068c565b6200049f565b9050919050565b6000819050919050565b620006d38362000696565b620006eb620006e282620006be565b84845462000636565b825550505050565b600090565b62000702620006f3565b6200070f818484620006c8565b505050565b5b8181101562000737576200072b600082620006f8565b60018101905062000715565b5050565b601f8211156200078657620007508162000604565b6200075b8462000619565b810160208510156200076b578190505b620007836200077a8562000619565b83018262000714565b50505b505050565b600082821c905092915050565b6000620007ab600019846008026200078b565b1980831691505092915050565b6000620007c6838362000798565b9150826002028217905092915050565b620007e18262000595565b67ffffffffffffffff811115620007fd57620007fc6200033b565b5b620008098254620005cf565b620008168282856200073b565b600060209050601f8311600181146200084e576000841562000839578287015190505b620008458582620007b8565b865550620008b5565b601f1984166200085e8662000604565b60005b82811015620008885784890151825560018201915060208501945060208101905062000861565b86831015620008a85784890151620008a4601f89168262000798565b8355505b6001600288020188555050505b505050505050565b60805160a05160c05160e05161010051610120516101405161016051610180516101a051614c8c62000b0760003960008181611aaf01526124ae015260008181610bd801526123ad0152600081816108ad0152612342015260008181610a3f0152610d6a0152600081816103ea015281816107480152818161123b0152818161139c015281816113f20152818161175001528181611a6701528181611ed401528181611fe3015281816122fa01528181612756015281816128b301528181612a0b01528181612d8901528181612ee6015261303e015260008181610b21015281816110dd0152818161152b015281816120710152818161259e0152818161271a01528181612777015281816129cf01528181612a2c0152818161344c0152613956015260008181610b760152818161117b01528181611580015281816120c6015281816124fa0152818161267b01528181612877015281816128d4015281816133ad015281816134f7015281816138b70152613a39015260008181610523015281816107f601528181610e5a015281816117de01528181612b2d01528181612cae01528181612eaa01528181612f0701528181613160015281816132aa015281816135fa015261377c0152600081816105780152818161084b01528181610ef80152818161183301528181612bd101528181612d4d01528181612daa015281816130020152818161305f015281816131ff01526136990152600081816106070152818161092201528181610c4d0152818161160f0152818161190e01526121a10152614c8c6000f3fe608060405234801561001057600080fd5b50600436106101585760003560e01c8063733018ec116100c3578063bebcedd41161007c578063bebcedd414610335578063c84847db14610353578063cf5b289214610371578063d1c23ed61461038d578063d2399ace146103ab578063e6553b4a146103c957610158565b8063733018ec146102a9578063779e968f146102c7578063816fb01d146102d15780639552ddf7146102db5780639a077173146102f9578063a1e9ddee1461031757610158565b8063468b968611610115578063468b96861461020d5780634b2722a71461022b578063504139941461024957806350d0d81414610253578063588db88d146102715780635f11b2b21461028d57610158565b8063018b99c81461015d5780630da6c082146101795780630ede1ed41461019557806317ff96de146101b3578063187e50a5146101d1578063263da40b146101ef575b600080fd5b61017760048036038101906101729190613cc7565b6103e7565b005b610193600480360381019061018e9190613cc7565b610745565b005b61019d610e55565b6040516101aa9190613d70565b60405180910390f35b6101bb610fa3565b6040516101c89190613da6565b60405180910390f35b6101d9610ff7565b6040516101e69190613e51565b60405180910390f35b6101f7611089565b6040516102049190613d70565b60405180910390f35b6102156110d8565b6040516102229190613d70565b60405180910390f35b610233611226565b6040516102409190613d70565b60405180910390f35b610251611238565b005b61025b6113dd565b6040516102689190613d70565b60405180910390f35b61028b60048036038101906102869190613cc7565b6113ef565b005b6102a760048036038101906102a29190613cc7565b61174d565b005b6102b1611aad565b6040516102be9190613d70565b60405180910390f35b6102cf611ad1565b005b6102d9611cc6565b005b6102e3611ebb565b6040516102f09190613da6565b60405180910390f35b610301611ed2565b60405161030e9190613e82565b60405180910390f35b61031f611ef6565b60405161032c9190613d70565b60405180910390f35b61033d611f3d565b60405161034a9190613da6565b60405180910390f35b61035b611f91565b6040516103689190613d70565b60405180910390f35b61038b60048036038101906103869190613cc7565b611fe0565b005b610395612340565b6040516103a29190613d70565b60405180910390f35b6103b3612364565b6040516103c09190613d70565b60405180910390f35b6103d16123ab565b6040516103de9190613d70565b60405180910390f35b337f000000000000000000000000000000000000000000000000000000000000000073ffffffffffffffffffffffffffffffffffffffff168173ffffffffffffffffffffffffffffffffffffffff1614610476576040517f08c379a000000000000000000000000000000000000000000000000000000000815260040161046d90613f0f565b60405180910390fd5b6000600860009054906101000a900460ff1660ff161461049957610498613f2f565b5b42600754116104dd576040517f08c379a00000000000000000000000000000000000000000000000000000000081526004016104d490613faa565b60405180910390fd5b6005548614610521576040517f08c379a000000000000000000000000000000000000000000000000000000000815260040161051890614016565b60405180910390fd5b7f000000000000000000000000000000000000000000000000000000000000000073ffffffffffffffffffffffffffffffffffffffff168773ffffffffffffffffffffffffffffffffffffffff1614806105c657507f000000000000000000000000000000000000000000000000000000000000000073ffffffffffffffffffffffffffffffffffffffff168773ffffffffffffffffffffffffffffffffffffffff16145b610605576040517f08c379a00000000000000000000000000000000000000000000000000000000081526004016105fc90614082565b60405180910390fd5b7f000000000000000000000000000000000000000000000000000000000000000073ffffffffffffffffffffffffffffffffffffffff166330f28b7a604051806060016040528060405180604001604052808c73ffffffffffffffffffffffffffffffffffffffff1681526020018b81525081526020018881526020018781525060405180604001604052803073ffffffffffffffffffffffffffffffffffffffff1681526020018a8152503387876040518663ffffffff1660e01b81526004016106d495949392919061420c565b600060405180830381600087803b1580156106ee57600080fd5b505af1158015610702573d6000803e3d6000fd5b505050506000600860036101000a81548160ff0219169083151502179055506001600860026101000a81548160ff02191690831515021790555050505050505050565b337f000000000000000000000000000000000000000000000000000000000000000073ffffffffffffffffffffffffffffffffffffffff168173ffffffffffffffffffffffffffffffffffffffff160361079e57600080fd5b60001515600860019054906101000a900460ff161515146107f4576040517f08c379a00000000000000000000000000000000000000000000000000000000081526004016107eb906142cd565b60405180910390fd5b7f000000000000000000000000000000000000000000000000000000000000000073ffffffffffffffffffffffffffffffffffffffff168773ffffffffffffffffffffffffffffffffffffffff16148061089957507f000000000000000000000000000000000000000000000000000000000000000073ffffffffffffffffffffffffffffffffffffffff168773ffffffffffffffffffffffffffffffffffffffff16145b15610b1f5760006108a9876123cf565b90507f0000000000000000000000000000000000000000000000000000000000000000816108d5610e55565b6108df919061431c565b1115610920576040517f08c379a0000000000000000000000000000000000000000000000000000000008152600401610917906143c2565b60405180910390fd5b7f000000000000000000000000000000000000000000000000000000000000000073ffffffffffffffffffffffffffffffffffffffff166330f28b7a604051806060016040528060405180604001604052808d73ffffffffffffffffffffffffffffffffffffffff1681526020018c81525081526020018981526020018881525060405180604001604052803073ffffffffffffffffffffffffffffffffffffffff1681526020018b8152503388886040518663ffffffff1660e01b81526004016109ef95949392919061420c565b600060405180830381600087803b158015610a0957600080fd5b505af1158015610a1d573d6000803e3d6000fd5b505050508773ffffffffffffffffffffffffffffffffffffffff1663a9059cbb7f0000000000000000000000000000000000000000000000000000000000000000621e84806040518363ffffffff1660e01b8152600401610a7f92919061441d565b6020604051808303816000875af1158015610a9e573d6000803e3d6000fd5b505050506040513d601f19601f82011682018060405250810190610ac29190614472565b5080600160003373ffffffffffffffffffffffffffffffffffffffff1673ffffffffffffffffffffffffffffffffffffffff1681526020019081526020016000206000828254610b12919061431c565b9250508190555050610e4c565b7f000000000000000000000000000000000000000000000000000000000000000073ffffffffffffffffffffffffffffffffffffffff168773ffffffffffffffffffffffffffffffffffffffff161480610bc457507f000000000000000000000000000000000000000000000000000000000000000073ffffffffffffffffffffffffffffffffffffffff168773ffffffffffffffffffffffffffffffffffffffff16145b15610e4b576000610bd48761242a565b90507f000000000000000000000000000000000000000000000000000000000000000081610c006110d8565b610c0a919061431c565b1115610c4b576040517f08c379a0000000000000000000000000000000000000000000000000000000008152600401610c42906143c2565b60405180910390fd5b7f000000000000000000000000000000000000000000000000000000000000000073ffffffffffffffffffffffffffffffffffffffff166330f28b7a604051806060016040528060405180604001604052808d73ffffffffffffffffffffffffffffffffffffffff1681526020018c81525081526020018981526020018881525060405180604001604052803073ffffffffffffffffffffffffffffffffffffffff1681526020018b8152503388886040518663ffffffff1660e01b8152600401610d1a95949392919061420c565b600060405180830381600087803b158015610d3457600080fd5b505af1158015610d48573d6000803e3d6000fd5b505050508773ffffffffffffffffffffffffffffffffffffffff1663a9059cbb7f0000000000000000000000000000000000000000000000000000000000000000671bc16d674ec800006040518363ffffffff1660e01b8152600401610daf9291906144da565b6020604051808303816000875af1158015610dce573d6000803e3d6000fd5b505050506040513d601f19601f82011682018060405250810190610df29190614472565b5080600260003373ffffffffffffffffffffffffffffffffffffffff1673ffffffffffffffffffffffffffffffffffffffff1681526020019081526020016000206000828254610e42919061431c565b92505081905550505b5b50505050505050565b6000807f000000000000000000000000000000000000000000000000000000000000000073ffffffffffffffffffffffffffffffffffffffff166370a08231306040518263ffffffff1660e01b8152600401610eb19190613e82565b602060405180830381865afa158015610ece573d6000803e3d6000fd5b505050506040513d601f19601f82011682018060405250810190610ef29190614518565b905060007f000000000000000000000000000000000000000000000000000000000000000073ffffffffffffffffffffffffffffffffffffffff166370a08231306040518263ffffffff1660e01b8152600401610f4f9190613e82565b602060405180830381865afa158015610f6c573d6000803e3d6000fd5b505050506040513d601f19601f82011682018060405250810190610f909190614518565b9050610f9c818361248f565b9250505090565b6000600360003373ffffffffffffffffffffffffffffffffffffffff1673ffffffffffffffffffffffffffffffffffffffff16815260200190815260200160002060009054906101000a900460ff16905090565b60606000805461100690614574565b80601f016020809104026020016040519081016040528092919081815260200182805461103290614574565b801561107f5780601f106110545761010080835404028352916020019161107f565b820191906000526020600020905b81548152906001019060200180831161106257829003601f168201915b5050505050905090565b60006110d3600160003373ffffffffffffffffffffffffffffffffffffffff1673ffffffffffffffffffffffffffffffffffffffff168152602001908152602001600020546124a5565b905090565b6000807f000000000000000000000000000000000000000000000000000000000000000073ffffffffffffffffffffffffffffffffffffffff166370a08231306040518263ffffffff1660e01b81526004016111349190613e82565b602060405180830381865afa158015611151573d6000803e3d6000fd5b505050506040513d601f19601f820116820180604052508101906111759190614518565b905060007f000000000000000000000000000000000000000000000000000000000000000073ffffffffffffffffffffffffffffffffffffffff166370a08231306040518263ffffffff1660e01b81526004016111d29190613e82565b602060405180830381865afa1580156111ef573d6000803e3d6000fd5b505050506040513d601f19601f820116820180604052508101906112139190614518565b905061121f828261248f565b9250505090565b60006112336006546124a5565b905090565b337f000000000000000000000000000000000000000000000000000000000000000073ffffffffffffffffffffffffffffffffffffffff168173ffffffffffffffffffffffffffffffffffffffff16146112c7576040517f08c379a00000000000000000000000000000000000000000000000000000000081526004016112be90613f0f565b60405180910390fd5b60001515600860019054906101000a900460ff1615151461131d576040517f08c379a0000000000000000000000000000000000000000000000000000000008152600401611314906145f1565b60405180910390fd5b6278614d4261132c919061431c565b60078190555061133a610e55565b6005819055506113486110d8565b6006819055506113566124f6565b61135e612b29565b6001600860016101000a81548160ff0219169083151502179055507f6c89190df2469bf518c6ca635650dc3a668a7bcb48c8fd9ca223dfe10340eb887f0000000000000000000000000000000000000000000000000000000000000000306005546006546040516113d2949392919061465d565b60405180910390a150565b60006113ea6005546124a5565b905090565b337f000000000000000000000000000000000000000000000000000000000000000073ffffffffffffffffffffffffffffffffffffffff168173ffffffffffffffffffffffffffffffffffffffff161461147e576040517f08c379a000000000000000000000000000000000000000000000000000000000815260040161147590613f0f565b60405180910390fd5b6000600860009054906101000a900460ff1660ff16146114a1576114a0613f2f565b5b42600754116114e5576040517f08c379a00000000000000000000000000000000000000000000000000000000081526004016114dc90613faa565b60405180910390fd5b6006548614611529576040517f08c379a000000000000000000000000000000000000000000000000000000000815260040161152090614016565b60405180910390fd5b7f000000000000000000000000000000000000000000000000000000000000000073ffffffffffffffffffffffffffffffffffffffff168773ffffffffffffffffffffffffffffffffffffffff1614806115ce57507f000000000000000000000000000000000000000000000000000000000000000073ffffffffffffffffffffffffffffffffffffffff168773ffffffffffffffffffffffffffffffffffffffff16145b61160d576040517f08c379a000000000000000000000000000000000000000000000000000000000815260040161160490614701565b60405180910390fd5b7f000000000000000000000000000000000000000000000000000000000000000073ffffffffffffffffffffffffffffffffffffffff166330f28b7a604051806060016040528060405180604001604052808c73ffffffffffffffffffffffffffffffffffffffff1681526020018b81525081526020018881526020018781525060405180604001604052803073ffffffffffffffffffffffffffffffffffffffff1681526020018a8152503387876040518663ffffffff1660e01b81526004016116dc95949392919061420c565b600060405180830381600087803b1580156116f657600080fd5b505af115801561170a573d6000803e3d6000fd5b505050506000600860036101000a81548160ff0219169083151502179055506001600860026101000a81548160ff02191690831515021790555050505050505050565b337f000000000000000000000000000000000000000000000000000000000000000073ffffffffffffffffffffffffffffffffffffffff168173ffffffffffffffffffffffffffffffffffffffff16146117dc576040517f08c379a00000000000000000000000000000000000000000000000000000000081526004016117d390613f0f565b60405180910390fd5b7f000000000000000000000000000000000000000000000000000000000000000073ffffffffffffffffffffffffffffffffffffffff168773ffffffffffffffffffffffffffffffffffffffff16148061188157507f000000000000000000000000000000000000000000000000000000000000000073ffffffffffffffffffffffffffffffffffffffff168773ffffffffffffffffffffffffffffffffffffffff16145b6118c0576040517f08c379a00000000000000000000000000000000000000000000000000000000081526004016118b790614082565b60405180910390fd5b6118cb6005546124a5565b861461190c576040517f08c379a0000000000000000000000000000000000000000000000000000000008152600401611903906147b9565b60405180910390fd5b7f000000000000000000000000000000000000000000000000000000000000000073ffffffffffffffffffffffffffffffffffffffff166330f28b7a604051806060016040528060405180604001604052808c73ffffffffffffffffffffffffffffffffffffffff1681526020018b81525081526020018881526020018781525060405180604001604052803073ffffffffffffffffffffffffffffffffffffffff1681526020018a8152503387876040518663ffffffff1660e01b81526004016119db95949392919061420c565b600060405180830381600087803b1580156119f557600080fd5b505af1158015611a09573d6000803e3d6000fd5b505050506001600860006101000a81548160ff021916908360ff1602179055506001600860026101000a81548160ff0219169083151502179055507f8e61bec80f445a7c240181cffb90e80ce1fe8fc9fa3747112efd0bb99ba242107f0000000000000000000000000000000000000000000000000000000000000000611a8e610e55565b604051611a9c929190614871565b60405180910390a150505050505050565b7f000000000000000000000000000000000000000000000000000000000000000081565b3360011515600860029054906101000a900460ff16151514611af657611af5613f2f565b5b60001515600360008373ffffffffffffffffffffffffffffffffffffffff1673ffffffffffffffffffffffffffffffffffffffff16815260200190815260200160002060009054906101000a900460ff161515148015611ba6575060001515600460008373ffffffffffffffffffffffffffffffffffffffff1673ffffffffffffffffffffffffffffffffffffffff16815260200190815260200160002060009054906101000a900460ff161515145b611be5576040517f08c379a0000000000000000000000000000000000000000000000000000000008152600401611bdc906148f9565b60405180910390fd5b60011515600860039054906101000a900460ff16151514611c0957611c08613f2f565b5b6000600260003373ffffffffffffffffffffffffffffffffffffffff1673ffffffffffffffffffffffffffffffffffffffff1681526020019081526020016000205403611c5d57611c5861315c565b611cc3565b6000600160003373ffffffffffffffffffffffffffffffffffffffff1673ffffffffffffffffffffffffffffffffffffffff1681526020019081526020016000205403611cb157611cac6133a9565b611cc2565b611cb961315c565b611cc16133a9565b5b5b50565b3360011515600860029054906101000a900460ff16151514611ceb57611cea613f2f565b5b60001515600360008373ffffffffffffffffffffffffffffffffffffffff1673ffffffffffffffffffffffffffffffffffffffff16815260200190815260200160002060009054906101000a900460ff161515148015611d9b575060001515600460008373ffffffffffffffffffffffffffffffffffffffff1673ffffffffffffffffffffffffffffffffffffffff16815260200190815260200160002060009054906101000a900460ff161515145b611dda576040517f08c379a0000000000000000000000000000000000000000000000000000000008152600401611dd1906148f9565b60405180910390fd5b60001515600860039054906101000a900460ff16151514611dfe57611dfd613f2f565b5b6000600260003373ffffffffffffffffffffffffffffffffffffffff1673ffffffffffffffffffffffffffffffffffffffff1681526020019081526020016000205403611e5257611e4d6135f6565b611eb8565b6000600160003373ffffffffffffffffffffffffffffffffffffffff1673ffffffffffffffffffffffffffffffffffffffff1681526020019081526020016000205403611ea657611ea16138b3565b611eb7565b611eae6135f6565b611eb66138b3565b5b5b50565b6000600860019054906101000a900460ff16905090565b7f000000000000000000000000000000000000000000000000000000000000000081565b6000600160003373ffffffffffffffffffffffffffffffffffffffff1673ffffffffffffffffffffffffffffffffffffffff16815260200190815260200160002054905090565b6000600460003373ffffffffffffffffffffffffffffffffffffffff1673ffffffffffffffffffffffffffffffffffffffff16815260200190815260200160002060009054906101000a900460ff16905090565b6000611fdb600260003373ffffffffffffffffffffffffffffffffffffffff1673ffffffffffffffffffffffffffffffffffffffff168152602001908152602001600020546124a5565b905090565b337f000000000000000000000000000000000000000000000000000000000000000073ffffffffffffffffffffffffffffffffffffffff168173ffffffffffffffffffffffffffffffffffffffff161461206f576040517f08c379a000000000000000000000000000000000000000000000000000000000815260040161206690613f0f565b60405180910390fd5b7f000000000000000000000000000000000000000000000000000000000000000073ffffffffffffffffffffffffffffffffffffffff168773ffffffffffffffffffffffffffffffffffffffff16148061211457507f000000000000000000000000000000000000000000000000000000000000000073ffffffffffffffffffffffffffffffffffffffff168773ffffffffffffffffffffffffffffffffffffffff16145b612153576040517f08c379a000000000000000000000000000000000000000000000000000000000815260040161214a90614701565b60405180910390fd5b61215e6006546124a5565b861461219f576040517f08c379a0000000000000000000000000000000000000000000000000000000008152600401612196906147b9565b60405180910390fd5b7f000000000000000000000000000000000000000000000000000000000000000073ffffffffffffffffffffffffffffffffffffffff166330f28b7a604051806060016040528060405180604001604052808c73ffffffffffffffffffffffffffffffffffffffff1681526020018b81525081526020018881526020018781525060405180604001604052803073ffffffffffffffffffffffffffffffffffffffff1681526020018a8152503387876040518663ffffffff1660e01b815260040161226e95949392919061420c565b600060405180830381600087803b15801561228857600080fd5b505af115801561229c573d6000803e3d6000fd5b505050506001600860006101000a81548160ff021916908360ff1602179055506001600860026101000a81548160ff0219169083151502179055507f8e61bec80f445a7c240181cffb90e80ce1fe8fc9fa3747112efd0bb99ba242107f00000000000000000000000000000000000000000000000000000000000000006123216110d8565b60405161232f9291906149b1565b60405180910390a150505050505050565b7f000000000000000000000000000000000000000000000000000000000000000081565b6000600260003373ffffffffffffffffffffffffffffffffffffffff1673ffffffffffffffffffffffffffffffffffffffff16815260200190815260200160002054905090565b7f000000000000000000000000000000000000000000000000000000000000000081565b6000621e84808211612416576040517f08c379a000000000000000000000000000000000000000000000000000000000815260040161240d90614a5f565b60405180910390fd5b61242382621e8480613b70565b9050919050565b6000671bc16d674ec800008211612476576040517f08c379a000000000000000000000000000000000000000000000000000000000815260040161246d90614a5f565b60405180910390fd5b61248882671bc16d674ec80000613b70565b9050919050565b6000818361249d919061431c565b905092915050565b6000806124d2837f0000000000000000000000000000000000000000000000000000000000000000613b86565b905060006124e1826064613b9c565b90506124ed818561248f565b92505050919050565b60007f000000000000000000000000000000000000000000000000000000000000000073ffffffffffffffffffffffffffffffffffffffff166370a08231306040518263ffffffff1660e01b81526004016125519190613e82565b602060405180830381865afa15801561256e573d6000803e3d6000fd5b505050506040513d601f19601f820116820180604052508101906125929190614518565b148015612638575060007f000000000000000000000000000000000000000000000000000000000000000073ffffffffffffffffffffffffffffffffffffffff166370a08231306040518263ffffffff1660e01b81526004016125f59190613e82565b602060405180830381865afa158015612612573d6000803e3d6000fd5b505050506040513d601f19601f820116820180604052508101906126369190614518565b145b15612677577f9f668bb27e8c31e5a8a9260397a46fe9fbc2ab9f39978799aa552999aac4d5c660405161266a90614acb565b60405180910390a1612b27565b60007f000000000000000000000000000000000000000000000000000000000000000073ffffffffffffffffffffffffffffffffffffffff166370a08231306040518263ffffffff1660e01b81526004016126d29190613e82565b602060405180830381865afa1580156126ef573d6000803e3d6000fd5b505050506040513d601f19601f820116820180604052508101906127139190614518565b03612875577f000000000000000000000000000000000000000000000000000000000000000073ffffffffffffffffffffffffffffffffffffffff1663a9059cbb7f00000000000000000000000000000000000000000000000000000000000000007f000000000000000000000000000000000000000000000000000000000000000073ffffffffffffffffffffffffffffffffffffffff166370a08231306040518263ffffffff1660e01b81526004016127ce9190613e82565b602060405180830381865afa1580156127eb573d6000803e3d6000fd5b505050506040513d601f19601f8201168201806040525081019061280f9190614518565b6040518363ffffffff1660e01b815260040161282c929190614aeb565b6020604051808303816000875af115801561284b573d6000803e3d6000fd5b505050506040513d601f19601f8201168201806040525081019061286f9190614472565b50612b26565b7f000000000000000000000000000000000000000000000000000000000000000073ffffffffffffffffffffffffffffffffffffffff1663a9059cbb7f00000000000000000000000000000000000000000000000000000000000000007f000000000000000000000000000000000000000000000000000000000000000073ffffffffffffffffffffffffffffffffffffffff166370a08231306040518263ffffffff1660e01b815260040161292b9190613e82565b602060405180830381865afa158015612948573d6000803e3d6000fd5b505050506040513d601f19601f8201168201806040525081019061296c9190614518565b6040518363ffffffff1660e01b8152600401612989929190614aeb565b6020604051808303816000875af11580156129a8573d6000803e3d6000fd5b505050506040513d601f19601f820116820180604052508101906129cc9190614472565b507f000000000000000000000000000000000000000000000000000000000000000073ffffffffffffffffffffffffffffffffffffffff1663a9059cbb7f00000000000000000000000000000000000000000000000000000000000000007f000000000000000000000000000000000000000000000000000000000000000073ffffffffffffffffffffffffffffffffffffffff166370a08231306040518263ffffffff1660e01b8152600401612a839190613e82565b602060405180830381865afa158015612aa0573d6000803e3d6000fd5b505050506040513d601f19601f82011682018060405250810190612ac49190614518565b6040518363ffffffff1660e01b8152600401612ae1929190614aeb565b6020604051808303816000875af1158015612b00573d6000803e3d6000fd5b505050506040513d601f19601f82011682018060405250810190612b249190614472565b505b5b565b60007f000000000000000000000000000000000000000000000000000000000000000073ffffffffffffffffffffffffffffffffffffffff166370a08231306040518263ffffffff1660e01b8152600401612b849190613e82565b602060405180830381865afa158015612ba1573d6000803e3d6000fd5b505050506040513d601f19601f82011682018060405250810190612bc59190614518565b148015612c6b575060007f000000000000000000000000000000000000000000000000000000000000000073ffffffffffffffffffffffffffffffffffffffff166370a08231306040518263ffffffff1660e01b8152600401612c289190613e82565b602060405180830381865afa158015612c45573d6000803e3d6000fd5b505050506040513d601f19601f82011682018060405250810190612c699190614518565b145b15612caa577f9f668bb27e8c31e5a8a9260397a46fe9fbc2ab9f39978799aa552999aac4d5c6604051612c9d90614b60565b60405180910390a161315a565b60007f000000000000000000000000000000000000000000000000000000000000000073ffffffffffffffffffffffffffffffffffffffff166370a08231306040518263ffffffff1660e01b8152600401612d059190613e82565b602060405180830381865afa158015612d22573d6000803e3d6000fd5b505050506040513d601f19601f82011682018060405250810190612d469190614518565b03612ea8577f000000000000000000000000000000000000000000000000000000000000000073ffffffffffffffffffffffffffffffffffffffff1663a9059cbb7f00000000000000000000000000000000000000000000000000000000000000007f000000000000000000000000000000000000000000000000000000000000000073ffffffffffffffffffffffffffffffffffffffff166370a08231306040518263ffffffff1660e01b8152600401612e019190613e82565b602060405180830381865afa158015612e1e573d6000803e3d6000fd5b505050506040513d601f19601f82011682018060405250810190612e429190614518565b6040518363ffffffff1660e01b8152600401612e5f929190614aeb565b6020604051808303816000875af1158015612e7e573d6000803e3d6000fd5b505050506040513d601f19601f82011682018060405250810190612ea29190614472565b50613159565b7f000000000000000000000000000000000000000000000000000000000000000073ffffffffffffffffffffffffffffffffffffffff1663a9059cbb7f00000000000000000000000000000000000000000000000000000000000000007f000000000000000000000000000000000000000000000000000000000000000073ffffffffffffffffffffffffffffffffffffffff166370a08231306040518263ffffffff1660e01b8152600401612f5e9190613e82565b602060405180830381865afa158015612f7b573d6000803e3d6000fd5b505050506040513d601f19601f82011682018060405250810190612f9f9190614518565b6040518363ffffffff1660e01b8152600401612fbc929190614aeb565b6020604051808303816000875af1158015612fdb573d6000803e3d6000fd5b505050506040513d601f19601f82011682018060405250810190612fff9190614472565b507f000000000000000000000000000000000000000000000000000000000000000073ffffffffffffffffffffffffffffffffffffffff1663a9059cbb7f00000000000000000000000000000000000000000000000000000000000000007f000000000000000000000000000000000000000000000000000000000000000073ffffffffffffffffffffffffffffffffffffffff166370a08231306040518263ffffffff1660e01b81526004016130b69190613e82565b602060405180830381865afa1580156130d3573d6000803e3d6000fd5b505050506040513d601f19601f820116820180604052508101906130f79190614518565b6040518363ffffffff1660e01b8152600401613114929190614aeb565b6020604051808303816000875af1158015613133573d6000803e3d6000fd5b505050506040513d601f19601f820116820180604052508101906131579190614472565b505b5b565b60007f000000000000000000000000000000000000000000000000000000000000000073ffffffffffffffffffffffffffffffffffffffff166370a08231306040518263ffffffff1660e01b81526004016131b79190613e82565b602060405180830381865afa1580156131d4573d6000803e3d6000fd5b505050506040513d601f19601f820116820180604052508101906131f89190614518565b036132a8577f000000000000000000000000000000000000000000000000000000000000000073ffffffffffffffffffffffffffffffffffffffff1663a9059cbb33613242611089565b6040518363ffffffff1660e01b815260040161325f929190614aeb565b6020604051808303816000875af115801561327e573d6000803e3d6000fd5b505050506040513d601f19601f820116820180604052508101906132a29190614472565b5061334f565b7f000000000000000000000000000000000000000000000000000000000000000073ffffffffffffffffffffffffffffffffffffffff1663a9059cbb336132ed611089565b6040518363ffffffff1660e01b815260040161330a929190614aeb565b6020604051808303816000875af1158015613329573d6000803e3d6000fd5b505050506040513d601f19601f8201168201806040525081019061334d9190614472565b505b6001600460003373ffffffffffffffffffffffffffffffffffffffff1673ffffffffffffffffffffffffffffffffffffffff16815260200190815260200160002060006101000a81548160ff021916908315150217905550565b60007f000000000000000000000000000000000000000000000000000000000000000073ffffffffffffffffffffffffffffffffffffffff166370a08231306040518263ffffffff1660e01b81526004016134049190613e82565b602060405180830381865afa158015613421573d6000803e3d6000fd5b505050506040513d601f19601f820116820180604052508101906134459190614518565b036134f5577f000000000000000000000000000000000000000000000000000000000000000073ffffffffffffffffffffffffffffffffffffffff1663a9059cbb3361348f611f91565b6040518363ffffffff1660e01b81526004016134ac929190614aeb565b6020604051808303816000875af11580156134cb573d6000803e3d6000fd5b505050506040513d601f19601f820116820180604052508101906134ef9190614472565b5061359c565b7f000000000000000000000000000000000000000000000000000000000000000073ffffffffffffffffffffffffffffffffffffffff1663a9059cbb3361353a611f91565b6040518363ffffffff1660e01b8152600401613557929190614aeb565b6020604051808303816000875af1158015613576573d6000803e3d6000fd5b505050506040513d601f19601f8201168201806040525081019061359a9190614472565b505b6001600360003373ffffffffffffffffffffffffffffffffffffffff1673ffffffffffffffffffffffffffffffffffffffff16815260200190815260200160002060006101000a81548160ff021916908315150217905550565b60007f000000000000000000000000000000000000000000000000000000000000000073ffffffffffffffffffffffffffffffffffffffff166370a08231306040518263ffffffff1660e01b81526004016136519190613e82565b602060405180830381865afa15801561366e573d6000803e3d6000fd5b505050506040513d601f19601f820116820180604052508101906136929190614518565b0361377a577f000000000000000000000000000000000000000000000000000000000000000073ffffffffffffffffffffffffffffffffffffffff1663a9059cbb33600160003373ffffffffffffffffffffffffffffffffffffffff1673ffffffffffffffffffffffffffffffffffffffff168152602001908152602001600020546040518363ffffffff1660e01b8152600401613731929190614aeb565b6020604051808303816000875af1158015613750573d6000803e3d6000fd5b505050506040513d601f19601f820116820180604052508101906137749190614472565b50613859565b7f000000000000000000000000000000000000000000000000000000000000000073ffffffffffffffffffffffffffffffffffffffff1663a9059cbb33600160003373ffffffffffffffffffffffffffffffffffffffff1673ffffffffffffffffffffffffffffffffffffffff168152602001908152602001600020546040518363ffffffff1660e01b8152600401613814929190614aeb565b6020604051808303816000875af1158015613833573d6000803e3d6000fd5b505050506040513d601f19601f820116820180604052508101906138579190614472565b505b6001600460003373ffffffffffffffffffffffffffffffffffffffff1673ffffffffffffffffffffffffffffffffffffffff16815260200190815260200160002060006101000a81548160ff021916908315150217905550565b60007f000000000000000000000000000000000000000000000000000000000000000073ffffffffffffffffffffffffffffffffffffffff166370a08231306040518263ffffffff1660e01b815260040161390e9190613e82565b602060405180830381865afa15801561392b573d6000803e3d6000fd5b505050506040513d601f19601f8201168201806040525081019061394f9190614518565b03613a37577f000000000000000000000000000000000000000000000000000000000000000073ffffffffffffffffffffffffffffffffffffffff1663a9059cbb33600260003373ffffffffffffffffffffffffffffffffffffffff1673ffffffffffffffffffffffffffffffffffffffff168152602001908152602001600020546040518363ffffffff1660e01b81526004016139ee929190614aeb565b6020604051808303816000875af1158015613a0d573d6000803e3d6000fd5b505050506040513d601f19601f82011682018060405250810190613a319190614472565b50613b16565b7f000000000000000000000000000000000000000000000000000000000000000073ffffffffffffffffffffffffffffffffffffffff1663a9059cbb33600260003373ffffffffffffffffffffffffffffffffffffffff1673ffffffffffffffffffffffffffffffffffffffff168152602001908152602001600020546040518363ffffffff1660e01b8152600401613ad1929190614aeb565b6020604051808303816000875af1158015613af0573d6000803e3d6000fd5b505050506040513d601f19601f82011682018060405250810190613b149190614472565b505b6001600360003373ffffffffffffffffffffffffffffffffffffffff1673ffffffffffffffffffffffffffffffffffffffff16815260200190815260200160002060006101000a81548160ff021916908315150217905550565b60008183613b7e9190614b80565b905092915050565b60008183613b949190614bb4565b905092915050565b60008183613baa9190614c25565b905092915050565b600080fd5b600080fd5b600073ffffffffffffffffffffffffffffffffffffffff82169050919050565b6000613be782613bbc565b9050919050565b6000613bf982613bdc565b9050919050565b613c0981613bee565b8114613c1457600080fd5b50565b600081359050613c2681613c00565b92915050565b6000819050919050565b613c3f81613c2c565b8114613c4a57600080fd5b50565b600081359050613c5c81613c36565b92915050565b600080fd5b600080fd5b600080fd5b60008083601f840112613c8757613c86613c62565b5b8235905067ffffffffffffffff811115613ca457613ca3613c67565b5b602083019150836001820283011115613cc057613cbf613c6c565b5b9250929050565b60008060008060008060a08789031215613ce457613ce3613bb2565b5b6000613cf289828a01613c17565b9650506020613d0389828a01613c4d565b9550506040613d1489828a01613c4d565b9450506060613d2589828a01613c4d565b935050608087013567ffffffffffffffff811115613d4657613d45613bb7565b5b613d5289828a01613c71565b92509250509295509295509295565b613d6a81613c2c565b82525050565b6000602082019050613d856000830184613d61565b92915050565b60008115159050919050565b613da081613d8b565b82525050565b6000602082019050613dbb6000830184613d97565b92915050565b600081519050919050565b600082825260208201905092915050565b60005b83811015613dfb578082015181840152602081019050613de0565b60008484015250505050565b6000601f19601f8301169050919050565b6000613e2382613dc1565b613e2d8185613dcc565b9350613e3d818560208601613ddd565b613e4681613e07565b840191505092915050565b60006020820190508181036000830152613e6b8184613e18565b905092915050565b613e7c81613bdc565b82525050565b6000602082019050613e976000830184613e73565b92915050565b7f4e6f207469656e6573207065726d69736f20706172612067656e65726172206560008201527f7374612066756e6374696f6e0000000000000000000000000000000000000000602082015250565b6000613ef9602c83613dcc565b9150613f0482613e9d565b604082019050919050565b60006020820190508181036000830152613f2881613eec565b9050919050565b7f4e487b7100000000000000000000000000000000000000000000000000000000600052600160045260246000fd5b7f59612070617361726f6e206c6f732033206d6573657300000000000000000000600082015250565b6000613f94601683613dcc565b9150613f9f82613f5e565b602082019050919050565b60006020820190508181036000830152613fc381613f87565b9050919050565b7f4573746f206e6f206573206c6f20717565207265636175646173746500000000600082015250565b6000614000601c83613dcc565b915061400b82613fca565b602082019050919050565b6000602082019050818103600083015261402f81613ff3565b9050919050565b7f457374612061646472657373206e6f2065732055534454206e69205553444300600082015250565b600061406c601f83613dcc565b915061407782614036565b602082019050919050565b6000602082019050818103600083015261409b8161405f565b9050919050565b6000819050919050565b60006140c76140c26140bd84613bbc565b6140a2565b613bbc565b9050919050565b60006140d9826140ac565b9050919050565b60006140eb826140ce565b9050919050565b6140fb816140e0565b82525050565b61410a81613c2c565b82525050565b60408201600082015161412660008501826140f2565b5060208201516141396020850182614101565b50505050565b6080820160008201516141556000850182614110565b5060208201516141686040850182614101565b50604082015161417b6060850182614101565b50505050565b61418a81613bdc565b82525050565b6040820160008201516141a66000850182614181565b5060208201516141b96020850182614101565b50505050565b600082825260208201905092915050565b82818337600083830152505050565b60006141eb83856141bf565b93506141f88385846141d0565b61420183613e07565b840190509392505050565b600061010082019050614222600083018861413f565b61422f6080830187614190565b61423c60c0830186613e73565b81810360e083015261424f8184866141df565b90509695505050505050565b7f456c207365736172726f6c6c61646f72207961207361636f20656c2064696e6560008201527f726f207961206e6164696520707565646520666f6e6465617200000000000000602082015250565b60006142b7603983613dcc565b91506142c28261425b565b604082019050919050565b600060208201905081810360008301526142e6816142aa565b9050919050565b7f4e487b7100000000000000000000000000000000000000000000000000000000600052601160045260246000fd5b600061432782613c2c565b915061433283613c2c565b925082820190508082111561434a576143496142ed565b5b92915050565b7f54752063616e746964616420736f62726570617361206c6f206573706572616460008201527f6f00000000000000000000000000000000000000000000000000000000000000602082015250565b60006143ac602183613dcc565b91506143b782614350565b604082019050919050565b600060208201905081810360008301526143db8161439f565b9050919050565b6000819050919050565b60006144076144026143fd846143e2565b6140a2565b613c2c565b9050919050565b614417816143ec565b82525050565b60006040820190506144326000830185613e73565b61443f602083018461440e565b9392505050565b61444f81613d8b565b811461445a57600080fd5b50565b60008151905061446c81614446565b92915050565b60006020828403121561448857614487613bb2565b5b60006144968482850161445d565b91505092915050565b6000819050919050565b60006144c46144bf6144ba8461449f565b6140a2565b613c2c565b9050919050565b6144d4816144a9565b82525050565b60006040820190506144ef6000830185613e73565b6144fc60208301846144cb565b9392505050565b60008151905061451281613c36565b92915050565b60006020828403121561452e5761452d613bb2565b5b600061453c84828501614503565b91505092915050565b7f4e487b7100000000000000000000000000000000000000000000000000000000600052602260045260246000fd5b6000600282049050600182168061458c57607f821691505b60208210810361459f5761459e614545565b5b50919050565b7f5961207361636173746520656c2064696e65726f000000000000000000000000600082015250565b60006145db601483613dcc565b91506145e6826145a5565b602082019050919050565b6000602082019050818103600083015261460a816145ce565b9050919050565b7f5961206e6164696520707565646520696e766572746972000000000000000000600082015250565b6000614647601783613dcc565b915061465282614611565b602082019050919050565b600060a0820190506146726000830187613e73565b61467f6020830186613e73565b61468c6040830185613d61565b6146996060830184613d61565b81810360808301526146aa8161463a565b905095945050505050565b7f457374612061646472657373206e6f20657320444149206e6920425553440000600082015250565b60006146eb601e83613dcc565b91506146f6826146b5565b602082019050919050565b6000602082019050818103600083015261471a816146de565b9050919050565b7f457374612063616e7469646164206e6f20657320737566696369656e7465207060008201527f617261206c69717569646172206120746f646f732074757320696e766572736960208201527f6f6e697374617300000000000000000000000000000000000000000000000000604082015250565b60006147a3604783613dcc565b91506147ae82614721565b606082019050919050565b600060208201905081810360008301526147d281614796565b9050919050565b7f59612070756564656e206c6f732071756520696e766972746965726f6e20656e60008201527f205553445420792055534443207361636172207375732072656e64696d69656e60208201527f746f730000000000000000000000000000000000000000000000000000000000604082015250565b600061485b604383613dcc565b9150614866826147d9565b606082019050919050565b60006060820190506148866000830185613e73565b6148936020830184613d61565b81810360408301526148a48161484e565b90509392505050565b7f596120736163617374652074752072656e64696d69656e746f00000000000000600082015250565b60006148e3601983613dcc565b91506148ee826148ad565b602082019050919050565b60006020820190508181036000830152614912816148d6565b9050919050565b7f59612070756564656e206c6f732071756520696e766972746965726f6e20656e60008201527f2044414920792042555344207361636172207375732072656e64696d69656e7460208201527f6f73000000000000000000000000000000000000000000000000000000000000604082015250565b600061499b604283613dcc565b91506149a682614919565b606082019050919050565b60006060820190506149c66000830185613e73565b6149d36020830184613d61565b81810360408301526149e48161498e565b90509392505050565b7f5469656e657320717565206d616e646172206d6173206465203220746f6b656e60008201527f7300000000000000000000000000000000000000000000000000000000000000602082015250565b6000614a49602183613dcc565b9150614a54826149ed565b604082019050919050565b60006020820190508181036000830152614a7881614a3c565b9050919050565b7f4441492079204255534400000000000000000000000000000000000000000000600082015250565b6000614ab5600a83613dcc565b9150614ac082614a7f565b602082019050919050565b60006020820190508181036000830152614ae481614aa8565b9050919050565b6000604082019050614b006000830185613e73565b614b0d6020830184613d61565b9392505050565b7f5553444320792055534454000000000000000000000000000000000000000000600082015250565b6000614b4a600b83613dcc565b9150614b5582614b14565b602082019050919050565b60006020820190508181036000830152614b7981614b3d565b9050919050565b6000614b8b82613c2c565b9150614b9683613c2c565b9250828203905081811115614bae57614bad6142ed565b5b92915050565b6000614bbf82613c2c565b9150614bca83613c2c565b9250828202614bd881613c2c565b91508282048414831517614bef57614bee6142ed565b5b5092915050565b7f4e487b7100000000000000000000000000000000000000000000000000000000600052601260045260246000fd5b6000614c3082613c2c565b9150614c3b83613c2c565b925082614c4b57614c4a614bf6565b5b82820490509291505056fea264697066735822122011698e11d86b7be42b1625f29262846d9f8f7d10fe23341f2d31f962a011436464736f6c63430008110033",
  "immutableReferences": {
    "462": [
      {
        "length": 32,
        "start": 1543
      },
      {
        "length": 32,
        "start": 2338
      },
      {
        "length": 32,
        "start": 3149
      },
      {
        "length": 32,
        "start": 5647
      },
      {
        "length": 32,
        "start": 6414
      },
      {
        "length": 32,
        "start": 8609
      }
    ],
    "471": [
      {
        "length": 32,
        "start": 1400
      },
      {
        "length": 32,
        "start": 2123
      },
      {
        "length": 32,
        "start": 3832
      },
      {
        "length": 32,
        "start": 6195
      },
      {
        "length": 32,
        "start": 11217
      },
      {
        "length": 32,
        "start": 11597
      },
      {
        "length": 32,
        "start": 11690
      },
      {
        "length": 32,
        "start": 12290
      },
      {
        "length": 32,
        "start": 12383
      },
      {
        "length": 32,
        "start": 12799
      },
      {
        "length": 32,
        "start": 13977
      }
    ],
    "480": [
      {
        "length": 32,
        "start": 1315
      },
      {
        "length": 32,
        "start": 2038
      },
      {
        "length": 32,
        "start": 3674
      },
      {
        "length": 32,
        "start": 6110
      },
      {
        "length": 32,
        "start": 11053
      },
      {
        "length": 32,
        "start": 11438
      },
      {
        "length": 32,
        "start": 11946
      },
      {
        "length": 32,
        "start": 12039
      },
      {
        "length": 32,
        "start": 12640
      },
      {
        "length": 32,
        "start": 12970
      },
      {
        "length": 32,
        "start": 13818
      },
      {
        "length": 32,
        "start": 14204
      }
    ],
    "489": [
      {
        "length": 32,
        "start": 2934
      },
      {
        "length": 32,
        "start": 4475
      },
      {
        "length": 32,
        "start": 5504
      },
      {
        "length": 32,
        "start": 8390
      },
      {
        "length": 32,
        "start": 9466
      },
      {
        "length": 32,
        "start": 9851
      },
      {
        "length": 32,
        "start": 10359
      },
      {
        "length": 32,
        "start": 10452
      },
      {
        "length": 32,
        "start": 13229
      },
      {
        "length": 32,
        "start": 13559
      },
      {
        "length": 32,
        "start": 14519
      },
      {
        "length": 32,
        "start": 14905
      }
    ],
    "498": [
      {
        "length": 32,
        "start": 2849
      },
      {
        "length": 32,
        "start": 4317
      },
      {
        "length": 32,
        "start": 5419
      },
      {
        "length": 32,
        "start": 8305
      },
      {
        "length": 32,
        "start": 9630
      },
      {
        "length": 32,
        "start": 10010
      },
      {
        "length": 32,
        "start": 10103
      },
      {
        "length": 32,
        "start": 10703
      },
      {
        "length": 32,
        "start": 10796
      },
      {
        "length": 32,
        "start": 13388
      },
      {
        "length": 32,
        "start": 14678
      }
    ],
    "524": [
      {
        "length": 32,
        "start": 1002
      },
      {
        "length": 32,
        "start": 1864
      },
      {
        "length": 32,
        "start": 4667
      },
      {
        "length": 32,
        "start": 5020
      },
      {
        "length": 32,
        "start": 5106
      },
      {
        "length": 32,
        "start": 5968
      },
      {
        "length": 32,
        "start": 6759
      },
      {
        "length": 32,
        "start": 7892
      },
      {
        "length": 32,
        "start": 8163
      },
      {
        "length": 32,
        "start": 8954
      },
      {
        "length": 32,
        "start": 10070
      },
      {
        "length": 32,
        "start": 10419
      },
      {
        "length": 32,
        "start": 10763
      },
      {
        "length": 32,
        "start": 11657
      },
      {
        "length": 32,
        "start": 12006
      },
      {
        "length": 32,
        "start": 12350
      }
    ],
    "526": [
      {
        "length": 32,
        "start": 2623
      },
      {
        "length": 32,
        "start": 3434
      }
    ],
    "528": [
      {
        "length": 32,
        "start": 2221
      },
      {
        "length": 32,
        "start": 9026
      }
    ],
    "530": [
      {
        "length": 32,
        "start": 3032
      },
      {
        "length": 32,
        "start": 9133
      }
    ],
    "532": [
      {
        "length": 32,
        "start": 6831
      },
      {
        "length": 32,
        "start": 9390
      }
    ]
  },
  "source": "///////////////////////////       \\\\\\\\\\\\\\\\\\            /////////   ||||||||||||||||    ./////////////////////////.   \n///////////////////////////       \\\\\\\\\\\\\\\\\\\\          //////////   ||||||||||||||||  .///////////////////////////.\n///////////////////////////       \\\\\\\\\\\\\\\\\\\\\\        ///////////   ||||||||||||||||  .///////////////////////////.\n///////////////////////////       \\\\\\\\\\\\\\\\\\\\\\\\------////////////   ||||||||||||||||  .//////////////////////////.\n         /////////                \\\\\\\\\\\\\\\\\\\\\\\\\\----/////////////      ||||||||||      .///////////////\n         /////////                \\\\\\\\\\\\\\\\\\\\\\\\\\\\--//////////////      ||||||||||      .\\\\\\\\\\\\\\\\\\\\\\\\\\\n         /////////                \\\\\\\\\\\\\\\\\\\\\\\\\\\\\\///////////////      ||||||||||       .\\\\\\\\\\\\\\\\\\\\\\\\\\\\\\\\\n         ///////// -------------- \\\\\\\\\\\\\\\\\\            /////////      ||||||||||          \\\\\\\\\\\\\\\\\\\\\\\\\\\\\\\\\\\\\n         ///////// -------------- \\\\\\\\\\\\\\\\\\            /////////      ||||||||||                 \\\\\\\\\\\\\\\\\\\\\\\\\\\\\\\\.\n         ///////// -------------- \\\\\\\\\\\\\\\\\\            /////////      ||||||||||                  \\\\\\\\\\\\\\\\\\\\\\\\\\\\\\\\.\n         ///////// -------------- \\\\\\\\\\\\\\\\\\            /////////      ||||||||||                  ||||||||||||||||.\n         /////////                \\\\\\\\\\\\\\\\\\            /////////      ||||||||||                  ////////////////.\n         /////////                \\\\\\\\\\\\\\\\\\            /////////      ||||||||||               ///////////////////.\n         /////////                \\\\\\\\\\\\\\\\\\            /////////   ||||||||||||||||   `///////////////////////////.\n         /////////                \\\\\\\\\\\\\\\\\\            /////////   ||||||||||||||||  `////////////////////////////.\n         /////////                \\\\\\\\\\\\\\\\\\            /////////   ||||||||||||||||  `////////////////////////////.\n         /////////                \\\\\\\\\\\\\\\\\\            /////////   ||||||||||||||||  `//////////////////////////. \n\n// Contact creator: albertog1meza@gmail.com                            GOERLY\n// SPDX-License-Identifier: UNLICENSED\npragma solidity ^0.8.0;\n\nimport \"@openzeppelin/contracts/utils/math/SafeMath.sol\";\n\ncontract TMIS {\n    constructor () {\n        creador = msg.sender;\n    }\n    bool private SePuedeCrear = true;\n    address private creador;\n    mapping(address => address) private BuscarContratoDelDesarrollador;\n    modifier onlyOwner(address direccion) {\n        require(direccion == creador, \"No creaste T-MIS\");\n        _;\n    }\n\n    function crearContrato(string memory terminosYcondiciones, uint256 DyOchoDinero, uint256 SIXdinero, uint256 rendimiento) public {\n        require(SePuedeCrear == true, \"YA NADIE PUEDE CREAR CONTRATOS\");\n        address DireccionContratoDelDesarrollador = address(new ContratoDelDesarrollador(msg.sender, terminosYcondiciones, DyOchoDinero, SIXdinero, rendimiento, creador));\n        BuscarContratoDelDesarrollador[msg.sender] = DireccionContratoDelDesarrollador;\n    }\n\n    function buscarCONTRATO(address _address) public view returns(address) {\n        return BuscarContratoDelDesarrollador[_address];\n    } \n\n    function detener() public onlyOwner(msg.sender) {\n        SePuedeCrear = false;\n    }\n\n}\n\ncontract ContratoDelDesarrollador {\n\n    constructor (address _miDireccion, string memory _lawpaper , uint256 DyOchoDinero, uint256 SIXdinero, uint256 _rendimiento, address creator) {\n        addressDelDesarrollador = _miDireccion;\n        terminosDELdesarrollador = _lawpaper;\n        cantidadObjetivoDyO = DyOchoDinero;\n        cantidadObjetivoSIX = SIXdinero;\n        rendimiento = _rendimiento;\n        creadorTmis = creator;\n    } \n\n    IPermit2 immutable PERMIT2 = IPermit2(address(0x000000000022D473030F116dDEE9F6B43aC78BA3));\n    IERC20 immutable USDT = IERC20(address(0x812c9D3345e29d3029DDE235d01E99d02dAf08F7));        \n    IERC20 immutable USDC = IERC20(address(0x237c89df66aB0cF2925367Cf169512D7a6F2A1De));\n    IERC20 immutable BUSD = IERC20(address(0xa098213f826cDf0acFe2619b502971e537B1F363));\n    IERC20 immutable DAI = IERC20(address(0x942e0179dBf64CA9B14Da9f2b500672cDADF2E0b));\n    event ElDesarrolladorYaSacoElDinero(address, address, uint256, uint256, string);\n    event ElDesarrolladorYaDevolvioElDinero(address, uint256, string);\n    event nadieInvirtioCon(string);\n    address public immutable addressDelDesarrollador;\n    address private immutable creadorTmis;\n    uint256 public immutable cantidadObjetivoSIX;\n    uint256 public immutable cantidadObjetivoDyO;\n    uint256 public immutable rendimiento;\n    string private terminosDELdesarrollador;\n    mapping(address => uint256) private MAP_six_inversionista;\n    mapping(address => uint256) private MAP_DyOcho_inversionista;\n    mapping(address => bool) private MAP_DyOcho_yaSacoSuRendimiento;\n    mapping(address => bool) private MAP_six_yaSacoSuRendimiento;\n    uint256 private totalRecaudado_six;\n    uint256 private totalRecaudado_DyOcho;\n    uint256 private T_masTres_M;\n    uint8 private returnWhith = 0;\n    bool private yaSacoElDinero = false; \n    bool private yaLiquido = false; \n    bool private seRealizoElProyecto = true;\n\n    modifier onlyOwner(address _direccion) {\n        require(_direccion == addressDelDesarrollador, \"No tienes permiso para generar esta function\");\n        _;\n    }\n    modifier OnlyInvestors(address direccion) {\n        assert(yaLiquido == true);\n        require(MAP_DyOcho_yaSacoSuRendimiento[direccion] == false && MAP_six_yaSacoSuRendimiento[direccion] == false, \"Ya sacaste tu rendimiento\");\n        _;\n    }\n    modifier requisitos(address _direccion) {\n        require(_direccion != addressDelDesarrollador);\n        require(yaSacoElDinero == false, \"El sesarrollador ya saco el dinero ya nadie puede fondear\");\n        _;\n    }\n    function sixComision(uint256 _cantidad) private pure returns(uint256 invertido) {\n        require(_cantidad > 2000000, \"Tienes que mandar mas de 2 tokens\");\n        invertido = SafeMath.sub(_cantidad, 2000000); \n    }\n    function DyOchoComision(uint256 _cantidad) private pure returns(uint256 invertido) {\n        require(_cantidad > 2000000000000000000, \"Tienes que mandar mas de 2 tokens\");\n        invertido = SafeMath.sub(_cantidad, 2000000000000000000); \n    }\n    function CalcularRendimiento(uint256 _cantidad) private view returns(uint256) {\n        uint256 multiplication = SafeMath.mul(_cantidad, rendimiento);\n        uint256 division = SafeMath.div(multiplication, 100);\n        return SafeMath.add(division, _cantidad);\n    }\n\n    function transferSix() private {\n        if(USDC.balanceOf(address(this)) == 0 && USDT.balanceOf(address(this)) == 0) {\n            emit nadieInvirtioCon(\"USDC y USDT\");\n        } else if (USDC.balanceOf(address(this)) == 0) {\n            USDT.transfer(addressDelDesarrollador, USDT.balanceOf(address(this)));\n        } else {\n            USDC.transfer(addressDelDesarrollador, USDC.balanceOf(address(this)));\n            USDT.transfer(addressDelDesarrollador, USDT.balanceOf(address(this)));\n        }\n    }\n\n    function sixNOTwin() private {\n        if(USDC.balanceOf(address(this)) == 0) {\n            USDT.transfer(msg.sender, MAP_six_inversionista[msg.sender]);\n        } else {\n            USDC.transfer(msg.sender, MAP_six_inversionista[msg.sender]);\n        }\n        MAP_six_yaSacoSuRendimiento[msg.sender] = true;\n    }\n\n    function sixWithdraw() private {\n        if(USDC.balanceOf(address(this)) == 0) {\n            USDT.transfer(msg.sender, verCuantoTeGanarasSix());\n        } else {\n            USDC.transfer(msg.sender, verCuantoTeGanarasSix());\n        }\n        MAP_six_yaSacoSuRendimiento[msg.sender] = true;\n    }\n\n    function DyOchoNOTwin() private {\n        if(BUSD.balanceOf(address(this)) == 0) {\n            DAI.transfer(msg.sender, MAP_DyOcho_inversionista[msg.sender]);\n        } else {\n            BUSD.transfer(msg.sender, MAP_DyOcho_inversionista[msg.sender]);\n        }\n        MAP_DyOcho_yaSacoSuRendimiento[msg.sender] = true;\n    }\n\n    function DyOchoWithdraw() private {\n        if(BUSD.balanceOf(address(this)) == 0) {\n            DAI.transfer(msg.sender, verCuantoTeGanarasDyOcho());\n        } else {\n            BUSD.transfer(msg.sender, verCuantoTeGanarasDyOcho());\n        }\n        MAP_DyOcho_yaSacoSuRendimiento[msg.sender] = true;\n    }\n\n    function DyOchotransfer() private {\n        if(BUSD.balanceOf(address(this)) == 0 && DAI.balanceOf(address(this)) == 0) {\n            emit nadieInvirtioCon(\"DAI y BUSD\");\n        } else if (BUSD.balanceOf(address(this)) == 0) {\n            DAI.transfer(addressDelDesarrollador, DAI.balanceOf(address(this)));\n        } else {\n            BUSD.transfer(addressDelDesarrollador, BUSD.balanceOf(address(this)));\n            DAI.transfer(addressDelDesarrollador, DAI.balanceOf(address(this)));\n        }\n    }\n\n    function Invest(IERC20 token, uint256 amount, uint256 nonce, uint256 deadline, bytes calldata signature) public requisitos(msg.sender) {\n        if(token == USDC || token == USDT) {\n            uint256 invertido = sixComision(amount);\n            require(sixContractBalance() + invertido <= cantidadObjetivoSIX, \"Tu cantidad sobrepasa lo esperado\");\n            PERMIT2.permitTransferFrom(\n                IPermit2.PermitTransferFrom(IPermit2.TokenPermissions(token, amount), nonce, deadline),\n                IPermit2.SignatureTransferDetails({to: address(this), requestedAmount: amount}),\n                msg.sender,\n                signature\n            );\n            token.transfer(creadorTmis, 2000000);\n            MAP_six_inversionista[msg.sender] += invertido;\n        } else if(token == DAI || token == BUSD) {\n            uint256 invertido = DyOchoComision(amount);\n            require(DyOchoContractBalance() + invertido <= cantidadObjetivoDyO, \"Tu cantidad sobrepasa lo esperado\");\n            PERMIT2.permitTransferFrom(\n                IPermit2.PermitTransferFrom(IPermit2.TokenPermissions(token, amount), nonce, deadline),\n                IPermit2.SignatureTransferDetails({to: address(this), requestedAmount: amount}),\n                msg.sender,\n                signature\n            );\n            token.transfer(creadorTmis, 2000000000000000000);\n            MAP_DyOcho_inversionista[msg.sender] += invertido;\n        }\n    }\n\n    function withdrawForOwner() public onlyOwner(msg.sender) {\n        require(yaSacoElDinero == false, \"Ya sacaste el dinero\");\n        T_masTres_M = block.timestamp + 7889229;\n        totalRecaudado_six = sixContractBalance();\n        totalRecaudado_DyOcho = DyOchoContractBalance();\n        DyOchotransfer();\n        transferSix();\n        yaSacoElDinero = true;\n        emit ElDesarrolladorYaSacoElDinero(addressDelDesarrollador, address(this), totalRecaudado_six, totalRecaudado_DyOcho, \"Ya nadie puede invertir\");\n    }\n\n    function devolverCantidadSix(IERC20 token, uint256 amount, uint256 nonce, uint256 deadline, bytes calldata signature) public onlyOwner(msg.sender) {\n        require(token == USDC || token == USDT, \"Esta address no es USDT ni USDC\");      \n        require(amount == CalcularRendimiento(totalRecaudado_six), \"Esta cantidad no es suficiente para liquidar a todos tus inversionistas\");\n        PERMIT2.permitTransferFrom(\n            IPermit2.PermitTransferFrom(IPermit2.TokenPermissions(token, amount), nonce, deadline),\n            IPermit2.SignatureTransferDetails({to: address(this), requestedAmount: amount}),\n            msg.sender,\n            signature\n        );\n        returnWhith = 1;\n        yaLiquido = true;\n        emit ElDesarrolladorYaDevolvioElDinero(addressDelDesarrollador, sixContractBalance(), \"Ya pueden los que invirtieron en USDT y USDC sacar sus rendimientos\");\n    }\n\n    function devolverCantidadDyOcho(IERC20 token, uint256 amount, uint256 nonce, uint256 deadline, bytes calldata signature) public onlyOwner(msg.sender) {\n        require(token == DAI || token == BUSD, \"Esta address no es DAI ni BUSD\");      \n        require(amount == CalcularRendimiento(totalRecaudado_DyOcho), \"Esta cantidad no es suficiente para liquidar a todos tus inversionistas\");\n        PERMIT2.permitTransferFrom(\n            IPermit2.PermitTransferFrom(IPermit2.TokenPermissions(token, amount), nonce, deadline),\n            IPermit2.SignatureTransferDetails({to: address(this), requestedAmount: amount}),\n            msg.sender,\n            signature\n        );\n        returnWhith = 1;\n        yaLiquido = true;\n        emit ElDesarrolladorYaDevolvioElDinero(addressDelDesarrollador, DyOchoContractBalance(), \"Ya pueden los que invirtieron en DAI y BUSD sacar sus rendimientos\");\n    }\n\n    function DevolverPorContratiempoSix(IERC20 token, uint256 amount, uint256 nonce, uint256 deadline, bytes calldata signature) public onlyOwner(msg.sender) {\n        assert(returnWhith == 0);\n        require(T_masTres_M > block.timestamp, \"Ya pasaron los 3 meses\");\n        require(amount == totalRecaudado_six, \"Esto no es lo que recaudaste\");\n        require(token == USDC || token == USDT, \"Esta address no es USDT ni USDC\");\n        PERMIT2.permitTransferFrom(\n            IPermit2.PermitTransferFrom(IPermit2.TokenPermissions(token, amount), nonce, deadline),\n            IPermit2.SignatureTransferDetails({to: address(this), requestedAmount: amount}),\n            msg.sender,\n            signature\n        );\n        seRealizoElProyecto = false;\n        yaLiquido = true;\n    }\n\n    function DevolverPorContratiempoDyOcho(IERC20 token, uint256 amount, uint256 nonce, uint256 deadline, bytes calldata signature) public onlyOwner(msg.sender) {\n        assert(returnWhith == 0);\n        require(T_masTres_M > block.timestamp, \"Ya pasaron los 3 meses\");\n        require(amount == totalRecaudado_DyOcho, \"Esto no es lo que recaudaste\");\n        require(token == DAI || token == BUSD, \"Esta address no es DAI ni BUSD\");\n        PERMIT2.permitTransferFrom(\n            IPermit2.PermitTransferFrom(IPermit2.TokenPermissions(token, amount), nonce, deadline),\n            IPermit2.SignatureTransferDetails({to: address(this), requestedAmount: amount}),\n            msg.sender,\n            signature\n        );\n        seRealizoElProyecto = false;\n        yaLiquido = true;\n    }\n\n    function withdrawForinvestors() public OnlyInvestors(msg.sender) {\n        assert(seRealizoElProyecto == true);\n        if(MAP_DyOcho_inversionista[msg.sender] == 0) {\n            sixWithdraw();\n        } else if (MAP_six_inversionista[msg.sender] == 0) {\n            DyOchoWithdraw();\n        } else {\n            sixWithdraw();\n            DyOchoWithdraw();\n        }\n    }\n\n    function withdrawInvestorsNotWin() public OnlyInvestors(msg.sender) {\n        assert(seRealizoElProyecto == false);\n        if(MAP_DyOcho_inversionista[msg.sender] == 0) {\n            sixNOTwin();\n        } else if (MAP_six_inversionista[msg.sender] == 0) {\n            DyOchoNOTwin();\n        } else {\n            sixNOTwin();\n            DyOchoNOTwin();\n        }\n    }\n\n    function sixContractBalance() public view returns(uint256) {        \n        uint256 Usdc = USDC.balanceOf(address(this));\n        uint256 Tether = USDT.balanceOf(address(this));\n        return SafeMath.add(Tether, Usdc);\n    }\n\n    function DyOchoContractBalance() public view returns(uint256) {                        \n        uint256 Dai = DAI.balanceOf(address(this));\n        uint256 Busd = BUSD.balanceOf(address(this));\n        return SafeMath.add(Dai, Busd);\n    }\n\n    function YaSacoElDinero() public view returns(bool) {                                 \n        return yaSacoElDinero;\n    }\n\n    function verCuantoTeGanarasSix() public view returns(uint256) {                             \n        return CalcularRendimiento(MAP_six_inversionista[msg.sender]);\n    }\n\n    function verCuantoDevolverasSix() public view returns(uint256) {                             \n        return CalcularRendimiento(totalRecaudado_six);\n    }\n\n    function verCuantoDevolverasDyOcho() public view returns(uint256) {                             \n        return CalcularRendimiento(totalRecaudado_DyOcho);\n    }\n\n    function verCuantoTeGanarasDyOcho() public view returns(uint256) {                              \n        return CalcularRendimiento(MAP_DyOcho_inversionista[msg.sender]);\n    }\n\n    function SIXverCuantoInvertiste() public view returns(uint256) {                             \n        return MAP_six_inversionista[msg.sender];\n    }\n\n    function DyOchoverCuantoInvertiste() public view returns(uint256) {                             \n        return MAP_DyOcho_inversionista[msg.sender];\n    }\n\n    function YaSacasteTuRendimientoSix() public view returns(bool) {                          \n        return MAP_six_yaSacoSuRendimiento[msg.sender];\n    }\n\n    function YaSacasteTuRendimientoDyOcho() public view returns(bool) {                          \n        return MAP_DyOcho_yaSacoSuRendimiento[msg.sender];\n    }  \n\n    function verTerminosYcondiciones() public view returns(string memory) {                  \n        return terminosDELdesarrollador;\n    } \n\n}\n\ninterface IERC20 {\n    function transfer(address to, uint256 amount) external returns(bool);\n    function balanceOf(address account) external view returns(uint256);\n}\n\ninterface IPermit2 {\n    struct TokenPermissions {\n        IERC20 token;\n        uint256 amount;\n    }\n    struct PermitTransferFrom {\n        TokenPermissions permitted;\n        uint256 nonce;\n        uint256 deadline;\n    }\n    struct SignatureTransferDetails {\n        address to;\n        uint256 requestedAmount;\n    }\n    function permitTransferFrom(\n        PermitTransferFrom calldata permit, \n        SignatureTransferDetails calldata transferDetails,\n        address owner, \n        bytes calldata signature) external;\n}",
  "sourcePath": "/home/sparrow/T-mis/contracts/TMIS.sol",
  "compiler": {
    "name": "solc",
    "version": "0.8.17+commit.8df45f5f.Emscripten.clang"
  },
  "schemaVersion": "3.4.11",
  "updatedAt": "2023-03-01T21:29:12.683Z",
  "devdoc": {
    "kind": "dev",
    "methods": {},
    "version": 1
  },
  "userdoc": {
    "kind": "user",
    "methods": {},
    "version": 1
  }
}