{
  "contractName": "TMIS",
  "abi": [
    {
      "inputs": [],
      "stateMutability": "nonpayable",
      "type": "constructor"
    },
    {
      "inputs": [
        {
          "internalType": "string",
          "name": "terminosYcondiciones",
          "type": "string"
        },
        {
          "internalType": "uint256",
          "name": "DyOchoDinero",
          "type": "uint256"
        },
        {
          "internalType": "uint256",
          "name": "SIXdinero",
          "type": "uint256"
        },
        {
          "internalType": "uint256",
          "name": "rendimiento",
          "type": "uint256"
        }
      ],
      "name": "crearContrato",
      "outputs": [],
      "stateMutability": "nonpayable",
      "type": "function"
    },
    {
      "inputs": [
        {
          "internalType": "address",
          "name": "_address",
          "type": "address"
        }
      ],
      "name": "buscarCONTRATO",
      "outputs": [
        {
          "internalType": "address",
          "name": "",
          "type": "address"
        }
      ],
      "stateMutability": "view",
      "type": "function"
    },
    {
      "inputs": [],
      "name": "detener",
      "outputs": [],
      "stateMutability": "nonpayable",
      "type": "function"
    }
  ],
  "bytecode": "0x608060405260008060006101000a81548160ff021916908360ff16021790555034801561002b57600080fd5b5033600060016101000a81548173ffffffffffffffffffffffffffffffffffffffff021916908373ffffffffffffffffffffffffffffffffffffffff160217905550615fbb8061007c6000396000f3fe60806040523480156200001157600080fd5b5060043610620000465760003560e01c806356c5667f146200004b578063674dc5ce1462000081578063af4efb7a146200008d575b600080fd5b62000069600480360381019062000063919062000362565b620000ad565b604051620000789190620003a5565b60405180910390f35b6200008b62000116565b005b620000ab6004803603810190620000a591906200055f565b620001c8565b005b6000600160008373ffffffffffffffffffffffffffffffffffffffff1673ffffffffffffffffffffffffffffffffffffffff16815260200190815260200160002060009054906101000a900473ffffffffffffffffffffffffffffffffffffffff169050919050565b33600060019054906101000a900473ffffffffffffffffffffffffffffffffffffffff1673ffffffffffffffffffffffffffffffffffffffff168173ffffffffffffffffffffffffffffffffffffffff1614620001aa576040517f08c379a0000000000000000000000000000000000000000000000000000000008152600401620001a19062000651565b60405180910390fd5b60016000806101000a81548160ff021916908360ff16021790555050565b60008060009054906101000a900460ff1660ff1614620001ed57620001ec62000673565b5b60003385858585600060019054906101000a900473ffffffffffffffffffffffffffffffffffffffff166040516200022590620002db565b62000236969594939291906200072b565b604051809103906000f08015801562000253573d6000803e3d6000fd5b50905080600160003373ffffffffffffffffffffffffffffffffffffffff1673ffffffffffffffffffffffffffffffffffffffff16815260200190815260200160002060006101000a81548173ffffffffffffffffffffffffffffffffffffffff021916908373ffffffffffffffffffffffffffffffffffffffff1602179055505050505050565b6157e680620007a083390190565b6000604051905090565b600080fd5b600080fd5b600073ffffffffffffffffffffffffffffffffffffffff82169050919050565b60006200032a82620002fd565b9050919050565b6200033c816200031d565b81146200034857600080fd5b50565b6000813590506200035c8162000331565b92915050565b6000602082840312156200037b576200037a620002f3565b5b60006200038b848285016200034b565b91505092915050565b6200039f816200031d565b82525050565b6000602082019050620003bc600083018462000394565b92915050565b600080fd5b600080fd5b6000601f19601f8301169050919050565b7f4e487b7100000000000000000000000000000000000000000000000000000000600052604160045260246000fd5b6200041782620003cc565b810181811067ffffffffffffffff82111715620004395762000438620003dd565b5b80604052505050565b60006200044e620002e9565b90506200045c82826200040c565b919050565b600067ffffffffffffffff8211156200047f576200047e620003dd565b5b6200048a82620003cc565b9050602081019050919050565b82818337600083830152505050565b6000620004bd620004b78462000461565b62000442565b905082815260208101848484011115620004dc57620004db620003c7565b5b620004e984828562000497565b509392505050565b600082601f830112620005095762000508620003c2565b5b81356200051b848260208601620004a6565b91505092915050565b6000819050919050565b620005398162000524565b81146200054557600080fd5b50565b60008135905062000559816200052e565b92915050565b600080600080608085870312156200057c576200057b620002f3565b5b600085013567ffffffffffffffff8111156200059d576200059c620002f8565b5b620005ab87828801620004f1565b9450506020620005be8782880162000548565b9350506040620005d18782880162000548565b9250506060620005e48782880162000548565b91505092959194509250565b600082825260208201905092915050565b7f4e6f206372656173746520542d4d495300000000000000000000000000000000600082015250565b600062000639601083620005f0565b9150620006468262000601565b602082019050919050565b600060208201905081810360008301526200066c816200062a565b9050919050565b7f4e487b7100000000000000000000000000000000000000000000000000000000600052600160045260246000fd5b600081519050919050565b60005b83811015620006cd578082015181840152602081019050620006b0565b60008484015250505050565b6000620006e682620006a2565b620006f28185620005f0565b935062000704818560208601620006ad565b6200070f81620003cc565b840191505092915050565b620007258162000524565b82525050565b600060c08201905062000742600083018962000394565b8181036020830152620007568188620006d9565b90506200076760408301876200071a565b6200077660608301866200071a565b6200078560808301856200071a565b6200079460a083018462000394565b97965050505050505056fe6101c06040526e22d473030f116ddee9f6b43ac78ba373ffffffffffffffffffffffffffffffffffffffff1660809073ffffffffffffffffffffffffffffffffffffffff16815250735e2283ac73c40acfcb892852ddbde532d98e0e2273ffffffffffffffffffffffffffffffffffffffff1660a09073ffffffffffffffffffffffffffffffffffffffff1681525073079d3631b5f8caa65cc0d98df09c1f1db927810473ffffffffffffffffffffffffffffffffffffffff1660c09073ffffffffffffffffffffffffffffffffffffffff16815250737ecf2d0344724bbd03d87d5fbb64f3ec4379597d73ffffffffffffffffffffffffffffffffffffffff1660e09073ffffffffffffffffffffffffffffffffffffffff1681525073d0a342daed6679795db8ea5ca7c3f66fc49f5c2973ffffffffffffffffffffffffffffffffffffffff166101009073ffffffffffffffffffffffffffffffffffffffff168152506000600860006101000a81548160ff021916908360ff1602179055506000600860016101000a81548160ff0219169083151502179055506000600860026101000a81548160ff0219169083151502179055506001600860036101000a81548160ff0219169083151502179055506000600860046101000a81548160ff021916908360ff160217905550348015620001fa57600080fd5b50604051620057e6380380620057e68339818101604052810190620002209190620004f6565b8573ffffffffffffffffffffffffffffffffffffffff166101208173ffffffffffffffffffffffffffffffffffffffff16815250508460009081620002669190620007f2565b50836101808181525050826101608181525050816101a081815250508073ffffffffffffffffffffffffffffffffffffffff166101408173ffffffffffffffffffffffffffffffffffffffff1681525050505050505050620008d9565b6000604051905090565b600080fd5b600080fd5b600073ffffffffffffffffffffffffffffffffffffffff82169050919050565b60006200030482620002d7565b9050919050565b6200031681620002f7565b81146200032257600080fd5b50565b60008151905062000336816200030b565b92915050565b600080fd5b600080fd5b6000601f19601f8301169050919050565b7f4e487b7100000000000000000000000000000000000000000000000000000000600052604160045260246000fd5b620003918262000346565b810181811067ffffffffffffffff82111715620003b357620003b262000357565b5b80604052505050565b6000620003c8620002c3565b9050620003d6828262000386565b919050565b600067ffffffffffffffff821115620003f957620003f862000357565b5b620004048262000346565b9050602081019050919050565b60005b838110156200043157808201518184015260208101905062000414565b60008484015250505050565b6000620004546200044e84620003db565b620003bc565b90508281526020810184848401111562000473576200047262000341565b5b6200048084828562000411565b509392505050565b600082601f830112620004a0576200049f6200033c565b5b8151620004b28482602086016200043d565b91505092915050565b6000819050919050565b620004d081620004bb565b8114620004dc57600080fd5b50565b600081519050620004f081620004c5565b92915050565b60008060008060008060c08789031215620005165762000515620002cd565b5b60006200052689828a0162000325565b965050602087015167ffffffffffffffff8111156200054a5762000549620002d2565b5b6200055889828a0162000488565b95505060406200056b89828a01620004df565b94505060606200057e89828a01620004df565b93505060806200059189828a01620004df565b92505060a0620005a489828a0162000325565b9150509295509295509295565b600081519050919050565b7f4e487b7100000000000000000000000000000000000000000000000000000000600052602260045260246000fd5b600060028204905060018216806200060457607f821691505b6020821081036200061a5762000619620005bc565b5b50919050565b60008190508160005260206000209050919050565b60006020601f8301049050919050565b600082821b905092915050565b600060088302620006847fffffffffffffffffffffffffffffffffffffffffffffffffffffffffffffffff8262000645565b62000690868362000645565b95508019841693508086168417925050509392505050565b6000819050919050565b6000620006d3620006cd620006c784620004bb565b620006a8565b620004bb565b9050919050565b6000819050919050565b620006ef83620006b2565b62000707620006fe82620006da565b84845462000652565b825550505050565b600090565b6200071e6200070f565b6200072b818484620006e4565b505050565b5b8181101562000753576200074760008262000714565b60018101905062000731565b5050565b601f821115620007a2576200076c8162000620565b620007778462000635565b8101602085101562000787578190505b6200079f620007968562000635565b83018262000730565b50505b505050565b600082821c905092915050565b6000620007c760001984600802620007a7565b1980831691505092915050565b6000620007e28383620007b4565b9150826002028217905092915050565b620007fd82620005b1565b67ffffffffffffffff81111562000819576200081862000357565b5b620008258254620005eb565b6200083282828562000757565b600060209050601f8311600181146200086a576000841562000855578287015190505b620008618582620007d4565b865550620008d1565b601f1984166200087a8662000620565b60005b82811015620008a4578489015182556001820191506020850194506020810190506200087d565b86831015620008c45784890151620008c0601f891682620007b4565b8355505b6001600288020188555050505b505050505050565b60805160a05160c05160e05161010051610120516101405161016051610180516101a051614cc362000b2360003960008181611b6401526125ac015260008181610c6d01526124ab015260008181610942015261242d015260008181610ad40152610dff0152600081816104950152818161080f015281816112d0015281816113ff01528181611468015281816117e201528181611b1c01528181611f9c015281816120ab015281816123e501528181612854015281816129b101528181612b0901528181612e8701528181612fe4015261313c015260008181610bb601528181611172015281816115a1015281816121390152818161269c015281816128180152818161287501528181612acd01528181612b2a0152818161354a0152613a54015260008181610c0b01528181611210015281816115f60152818161218e015281816125f80152818161277901528181612975015281816129d2015281816134ab015281816135f5015281816139b50152613b370152600081816105ce0152818161088b01528181610eef0152818161187001528181612c2b01528181612dac01528181612fa8015281816130050152818161325e015281816133a8015281816136f8015261387a015260008181610623015281816108e001528181610f8d015281816118c501528181612ccf01528181612e4b01528181612ea8015281816131000152818161315d015281816132fd01526137970152600081816106b2015281816109b701528181610ce201528181611685015281816119c3015261228c0152614cc36000f3fe608060405234801561001057600080fd5b50600436106101a95760003560e01c8063733018ec116100f9578063bebcedd411610097578063d1c23ed611610071578063d1c23ed61461041a578063d2399ace14610438578063e39aafee14610456578063e6553b4a14610474576101a9565b8063bebcedd4146103c2578063c84847db146103e0578063cf5b2892146103fe576101a9565b80638a4ea39d116100d35780638a4ea39d1461034a5780639552ddf7146103685780639a07717314610386578063a1e9ddee146103a4576101a9565b8063733018ec14610318578063779e968f14610336578063816fb01d14610340576101a9565b8063468b96861161016657806350d0d8141161014057806350d0d814146102a457806353f5d81f146102c2578063588db88d146102e05780635f11b2b2146102fc576101a9565b8063468b96861461025e5780634b2722a71461027c578063504139941461029a576101a9565b8063018b99c8146101ae5780630da6c082146101ca5780630ede1ed4146101e657806317ff96de14610204578063187e50a514610222578063263da40b14610240575b600080fd5b6101c860048036038101906101c39190613dc5565b610492565b005b6101e460048036038101906101df9190613dc5565b61080c565b005b6101ee610eea565b6040516101fb9190613e6e565b60405180910390f35b61020c611038565b6040516102199190613ea4565b60405180910390f35b61022a61108c565b6040516102379190613f4f565b60405180910390f35b61024861111e565b6040516102559190613e6e565b60405180910390f35b61026661116d565b6040516102739190613e6e565b60405180910390f35b6102846112bb565b6040516102919190613e6e565b60405180910390f35b6102a26112cd565b005b6102ac611440565b6040516102b99190613e6e565b60405180910390f35b6102ca611452565b6040516102d79190613ea4565b60405180910390f35b6102fa60048036038101906102f59190613dc5565b611465565b005b61031660048036038101906103119190613dc5565b6117df565b005b610320611b62565b60405161032d9190613e6e565b60405180910390f35b61033e611b86565b005b610348611d7b565b005b610352611f70565b60405161035f9190613ea4565b60405180910390f35b610370611f83565b60405161037d9190613ea4565b60405180910390f35b61038e611f9a565b60405161039b9190613f80565b60405180910390f35b6103ac611fbe565b6040516103b99190613e6e565b60405180910390f35b6103ca612005565b6040516103d79190613ea4565b60405180910390f35b6103e8612059565b6040516103f59190613e6e565b60405180910390f35b61041860048036038101906104139190613dc5565b6120a8565b005b61042261242b565b60405161042f9190613e6e565b60405180910390f35b61044061244f565b60405161044d9190613e6e565b60405180910390f35b61045e612496565b60405161046b9190613fb7565b60405180910390f35b61047c6124a9565b6040516104899190613e6e565b60405180910390f35b337f000000000000000000000000000000000000000000000000000000000000000073ffffffffffffffffffffffffffffffffffffffff168173ffffffffffffffffffffffffffffffffffffffff1614610521576040517f08c379a000000000000000000000000000000000000000000000000000000000815260040161051890614044565b60405180910390fd5b6000600860009054906101000a900460ff1660ff161461054457610543614064565b5b4260075411610588576040517f08c379a000000000000000000000000000000000000000000000000000000000815260040161057f906140df565b60405180910390fd5b60055486146105cc576040517f08c379a00000000000000000000000000000000000000000000000000000000081526004016105c39061414b565b60405180910390fd5b7f000000000000000000000000000000000000000000000000000000000000000073ffffffffffffffffffffffffffffffffffffffff168773ffffffffffffffffffffffffffffffffffffffff16148061067157507f000000000000000000000000000000000000000000000000000000000000000073ffffffffffffffffffffffffffffffffffffffff168773ffffffffffffffffffffffffffffffffffffffff16145b6106b0576040517f08c379a00000000000000000000000000000000000000000000000000000000081526004016106a7906141b7565b60405180910390fd5b7f000000000000000000000000000000000000000000000000000000000000000073ffffffffffffffffffffffffffffffffffffffff166330f28b7a604051806060016040528060405180604001604052808c73ffffffffffffffffffffffffffffffffffffffff1681526020018b81525081526020018881526020018781525060405180604001604052803073ffffffffffffffffffffffffffffffffffffffff1681526020018a8152503387876040518663ffffffff1660e01b815260040161077f959493929190614341565b600060405180830381600087803b15801561079957600080fd5b505af11580156107ad573d6000803e3d6000fd5b505050506000600860036101000a81548160ff0219169083151502179055506001600860026101000a81548160ff0219169083151502179055506001600860046101000a81548160ff021916908360ff16021790555050505050505050565b337f000000000000000000000000000000000000000000000000000000000000000073ffffffffffffffffffffffffffffffffffffffff168173ffffffffffffffffffffffffffffffffffffffff160361086557600080fd5b60001515600860019054906101000a900460ff1615151461088957610888614064565b5b7f000000000000000000000000000000000000000000000000000000000000000073ffffffffffffffffffffffffffffffffffffffff168773ffffffffffffffffffffffffffffffffffffffff16148061092e57507f000000000000000000000000000000000000000000000000000000000000000073ffffffffffffffffffffffffffffffffffffffff168773ffffffffffffffffffffffffffffffffffffffff16145b15610bb457600061093e876124cd565b90507f00000000000000000000000000000000000000000000000000000000000000008161096a610eea565b61097491906143bf565b11156109b5576040517f08c379a00000000000000000000000000000000000000000000000000000000081526004016109ac90614465565b60405180910390fd5b7f000000000000000000000000000000000000000000000000000000000000000073ffffffffffffffffffffffffffffffffffffffff166330f28b7a604051806060016040528060405180604001604052808d73ffffffffffffffffffffffffffffffffffffffff1681526020018c81525081526020018981526020018881525060405180604001604052803073ffffffffffffffffffffffffffffffffffffffff1681526020018b8152503388886040518663ffffffff1660e01b8152600401610a84959493929190614341565b600060405180830381600087803b158015610a9e57600080fd5b505af1158015610ab2573d6000803e3d6000fd5b505050508773ffffffffffffffffffffffffffffffffffffffff1663a9059cbb7f0000000000000000000000000000000000000000000000000000000000000000621e84806040518363ffffffff1660e01b8152600401610b149291906144c0565b6020604051808303816000875af1158015610b33573d6000803e3d6000fd5b505050506040513d601f19601f82011682018060405250810190610b579190614515565b5080600160003373ffffffffffffffffffffffffffffffffffffffff1673ffffffffffffffffffffffffffffffffffffffff1681526020019081526020016000206000828254610ba791906143bf565b9250508190555050610ee1565b7f000000000000000000000000000000000000000000000000000000000000000073ffffffffffffffffffffffffffffffffffffffff168773ffffffffffffffffffffffffffffffffffffffff161480610c5957507f000000000000000000000000000000000000000000000000000000000000000073ffffffffffffffffffffffffffffffffffffffff168773ffffffffffffffffffffffffffffffffffffffff16145b15610ee0576000610c6987612528565b90507f000000000000000000000000000000000000000000000000000000000000000081610c9561116d565b610c9f91906143bf565b1115610ce0576040517f08c379a0000000000000000000000000000000000000000000000000000000008152600401610cd790614465565b60405180910390fd5b7f000000000000000000000000000000000000000000000000000000000000000073ffffffffffffffffffffffffffffffffffffffff166330f28b7a604051806060016040528060405180604001604052808d73ffffffffffffffffffffffffffffffffffffffff1681526020018c81525081526020018981526020018881525060405180604001604052803073ffffffffffffffffffffffffffffffffffffffff1681526020018b8152503388886040518663ffffffff1660e01b8152600401610daf959493929190614341565b600060405180830381600087803b158015610dc957600080fd5b505af1158015610ddd573d6000803e3d6000fd5b505050508773ffffffffffffffffffffffffffffffffffffffff1663a9059cbb7f0000000000000000000000000000000000000000000000000000000000000000671bc16d674ec800006040518363ffffffff1660e01b8152600401610e4492919061457d565b6020604051808303816000875af1158015610e63573d6000803e3d6000fd5b505050506040513d601f19601f82011682018060405250810190610e879190614515565b5080600260003373ffffffffffffffffffffffffffffffffffffffff1673ffffffffffffffffffffffffffffffffffffffff1681526020019081526020016000206000828254610ed791906143bf565b92505081905550505b5b50505050505050565b6000807f000000000000000000000000000000000000000000000000000000000000000073ffffffffffffffffffffffffffffffffffffffff166370a08231306040518263ffffffff1660e01b8152600401610f469190613f80565b602060405180830381865afa158015610f63573d6000803e3d6000fd5b505050506040513d601f19601f82011682018060405250810190610f8791906145bb565b905060007f000000000000000000000000000000000000000000000000000000000000000073ffffffffffffffffffffffffffffffffffffffff166370a08231306040518263ffffffff1660e01b8152600401610fe49190613f80565b602060405180830381865afa158015611001573d6000803e3d6000fd5b505050506040513d601f19601f8201168201806040525081019061102591906145bb565b9050611031818361258d565b9250505090565b6000600360003373ffffffffffffffffffffffffffffffffffffffff1673ffffffffffffffffffffffffffffffffffffffff16815260200190815260200160002060009054906101000a900460ff16905090565b60606000805461109b90614617565b80601f01602080910402602001604051908101604052809291908181526020018280546110c790614617565b80156111145780601f106110e957610100808354040283529160200191611114565b820191906000526020600020905b8154815290600101906020018083116110f757829003601f168201915b5050505050905090565b6000611168600160003373ffffffffffffffffffffffffffffffffffffffff1673ffffffffffffffffffffffffffffffffffffffff168152602001908152602001600020546125a3565b905090565b6000807f000000000000000000000000000000000000000000000000000000000000000073ffffffffffffffffffffffffffffffffffffffff166370a08231306040518263ffffffff1660e01b81526004016111c99190613f80565b602060405180830381865afa1580156111e6573d6000803e3d6000fd5b505050506040513d601f19601f8201168201806040525081019061120a91906145bb565b905060007f000000000000000000000000000000000000000000000000000000000000000073ffffffffffffffffffffffffffffffffffffffff166370a08231306040518263ffffffff1660e01b81526004016112679190613f80565b602060405180830381865afa158015611284573d6000803e3d6000fd5b505050506040513d601f19601f820116820180604052508101906112a891906145bb565b90506112b4828261258d565b9250505090565b60006112c86006546125a3565b905090565b337f000000000000000000000000000000000000000000000000000000000000000073ffffffffffffffffffffffffffffffffffffffff168173ffffffffffffffffffffffffffffffffffffffff161461135c576040517f08c379a000000000000000000000000000000000000000000000000000000000815260040161135390614044565b60405180910390fd5b60001515600860019054906101000a900460ff161515146113805761137f614064565b5b6278614d4261138f91906143bf565b60078190555061139d610eea565b6005819055506113ab61116d565b6006819055506113b96125f4565b6113c1612c27565b6001600860016101000a81548160ff0219169083151502179055507f6c89190df2469bf518c6ca635650dc3a668a7bcb48c8fd9ca223dfe10340eb887f0000000000000000000000000000000000000000000000000000000000000000306005546006546040516114359493929190614694565b60405180910390a150565b600061144d6005546125a3565b905090565b600860039054906101000a900460ff1681565b337f000000000000000000000000000000000000000000000000000000000000000073ffffffffffffffffffffffffffffffffffffffff168173ffffffffffffffffffffffffffffffffffffffff16146114f4576040517f08c379a00000000000000000000000000000000000000000000000000000000081526004016114eb90614044565b60405180910390fd5b6000600860009054906101000a900460ff1660ff161461151757611516614064565b5b426007541161155b576040517f08c379a0000000000000000000000000000000000000000000000000000000008152600401611552906140df565b60405180910390fd5b600654861461159f576040517f08c379a00000000000000000000000000000000000000000000000000000000081526004016115969061414b565b60405180910390fd5b7f000000000000000000000000000000000000000000000000000000000000000073ffffffffffffffffffffffffffffffffffffffff168773ffffffffffffffffffffffffffffffffffffffff16148061164457507f000000000000000000000000000000000000000000000000000000000000000073ffffffffffffffffffffffffffffffffffffffff168773ffffffffffffffffffffffffffffffffffffffff16145b611683576040517f08c379a000000000000000000000000000000000000000000000000000000000815260040161167a90614738565b60405180910390fd5b7f000000000000000000000000000000000000000000000000000000000000000073ffffffffffffffffffffffffffffffffffffffff166330f28b7a604051806060016040528060405180604001604052808c73ffffffffffffffffffffffffffffffffffffffff1681526020018b81525081526020018881526020018781525060405180604001604052803073ffffffffffffffffffffffffffffffffffffffff1681526020018a8152503387876040518663ffffffff1660e01b8152600401611752959493929190614341565b600060405180830381600087803b15801561176c57600080fd5b505af1158015611780573d6000803e3d6000fd5b505050506000600860036101000a81548160ff0219169083151502179055506001600860026101000a81548160ff0219169083151502179055506001600860046101000a81548160ff021916908360ff16021790555050505050505050565b337f000000000000000000000000000000000000000000000000000000000000000073ffffffffffffffffffffffffffffffffffffffff168173ffffffffffffffffffffffffffffffffffffffff161461186e576040517f08c379a000000000000000000000000000000000000000000000000000000000815260040161186590614044565b60405180910390fd5b7f000000000000000000000000000000000000000000000000000000000000000073ffffffffffffffffffffffffffffffffffffffff168773ffffffffffffffffffffffffffffffffffffffff16148061191357507f000000000000000000000000000000000000000000000000000000000000000073ffffffffffffffffffffffffffffffffffffffff168773ffffffffffffffffffffffffffffffffffffffff16145b611952576040517f08c379a0000000000000000000000000000000000000000000000000000000008152600401611949906141b7565b60405180910390fd5b61195d6005546125a3565b861461199e576040517f08c379a0000000000000000000000000000000000000000000000000000000008152600401611995906147f0565b60405180910390fd5b6000600860049054906101000a900460ff1660ff16146119c1576119c0614064565b5b7f000000000000000000000000000000000000000000000000000000000000000073ffffffffffffffffffffffffffffffffffffffff166330f28b7a604051806060016040528060405180604001604052808c73ffffffffffffffffffffffffffffffffffffffff1681526020018b81525081526020018881526020018781525060405180604001604052803073ffffffffffffffffffffffffffffffffffffffff1681526020018a8152503387876040518663ffffffff1660e01b8152600401611a90959493929190614341565b600060405180830381600087803b158015611aaa57600080fd5b505af1158015611abe573d6000803e3d6000fd5b505050506001600860006101000a81548160ff021916908360ff1602179055506001600860026101000a81548160ff0219169083151502179055507f8e61bec80f445a7c240181cffb90e80ce1fe8fc9fa3747112efd0bb99ba242107f0000000000000000000000000000000000000000000000000000000000000000611b43610eea565b604051611b519291906148a8565b60405180910390a150505050505050565b7f000000000000000000000000000000000000000000000000000000000000000081565b3360011515600860029054906101000a900460ff16151514611bab57611baa614064565b5b60001515600360008373ffffffffffffffffffffffffffffffffffffffff1673ffffffffffffffffffffffffffffffffffffffff16815260200190815260200160002060009054906101000a900460ff161515148015611c5b575060001515600460008373ffffffffffffffffffffffffffffffffffffffff1673ffffffffffffffffffffffffffffffffffffffff16815260200190815260200160002060009054906101000a900460ff161515145b611c9a576040517f08c379a0000000000000000000000000000000000000000000000000000000008152600401611c9190614930565b60405180910390fd5b60011515600860039054906101000a900460ff16151514611cbe57611cbd614064565b5b6000600260003373ffffffffffffffffffffffffffffffffffffffff1673ffffffffffffffffffffffffffffffffffffffff1681526020019081526020016000205403611d1257611d0d61325a565b611d78565b6000600160003373ffffffffffffffffffffffffffffffffffffffff1673ffffffffffffffffffffffffffffffffffffffff1681526020019081526020016000205403611d6657611d616134a7565b611d77565b611d6e61325a565b611d766134a7565b5b5b50565b3360011515600860029054906101000a900460ff16151514611da057611d9f614064565b5b60001515600360008373ffffffffffffffffffffffffffffffffffffffff1673ffffffffffffffffffffffffffffffffffffffff16815260200190815260200160002060009054906101000a900460ff161515148015611e50575060001515600460008373ffffffffffffffffffffffffffffffffffffffff1673ffffffffffffffffffffffffffffffffffffffff16815260200190815260200160002060009054906101000a900460ff161515145b611e8f576040517f08c379a0000000000000000000000000000000000000000000000000000000008152600401611e8690614930565b60405180910390fd5b60001515600860039054906101000a900460ff16151514611eb357611eb2614064565b5b6000600260003373ffffffffffffffffffffffffffffffffffffffff1673ffffffffffffffffffffffffffffffffffffffff1681526020019081526020016000205403611f0757611f026136f4565b611f6d565b6000600160003373ffffffffffffffffffffffffffffffffffffffff1673ffffffffffffffffffffffffffffffffffffffff1681526020019081526020016000205403611f5b57611f566139b1565b611f6c565b611f636136f4565b611f6b6139b1565b5b5b50565b600860029054906101000a900460ff1681565b6000600860019054906101000a900460ff16905090565b7f000000000000000000000000000000000000000000000000000000000000000081565b6000600160003373ffffffffffffffffffffffffffffffffffffffff1673ffffffffffffffffffffffffffffffffffffffff16815260200190815260200160002054905090565b6000600460003373ffffffffffffffffffffffffffffffffffffffff1673ffffffffffffffffffffffffffffffffffffffff16815260200190815260200160002060009054906101000a900460ff16905090565b60006120a3600260003373ffffffffffffffffffffffffffffffffffffffff1673ffffffffffffffffffffffffffffffffffffffff168152602001908152602001600020546125a3565b905090565b337f000000000000000000000000000000000000000000000000000000000000000073ffffffffffffffffffffffffffffffffffffffff168173ffffffffffffffffffffffffffffffffffffffff1614612137576040517f08c379a000000000000000000000000000000000000000000000000000000000815260040161212e90614044565b60405180910390fd5b7f000000000000000000000000000000000000000000000000000000000000000073ffffffffffffffffffffffffffffffffffffffff168773ffffffffffffffffffffffffffffffffffffffff1614806121dc57507f000000000000000000000000000000000000000000000000000000000000000073ffffffffffffffffffffffffffffffffffffffff168773ffffffffffffffffffffffffffffffffffffffff16145b61221b576040517f08c379a000000000000000000000000000000000000000000000000000000000815260040161221290614738565b60405180910390fd5b6122266006546125a3565b8614612267576040517f08c379a000000000000000000000000000000000000000000000000000000000815260040161225e906147f0565b60405180910390fd5b6000600860049054906101000a900460ff1660ff161461228a57612289614064565b5b7f000000000000000000000000000000000000000000000000000000000000000073ffffffffffffffffffffffffffffffffffffffff166330f28b7a604051806060016040528060405180604001604052808c73ffffffffffffffffffffffffffffffffffffffff1681526020018b81525081526020018881526020018781525060405180604001604052803073ffffffffffffffffffffffffffffffffffffffff1681526020018a8152503387876040518663ffffffff1660e01b8152600401612359959493929190614341565b600060405180830381600087803b15801561237357600080fd5b505af1158015612387573d6000803e3d6000fd5b505050506001600860006101000a81548160ff021916908360ff1602179055506001600860026101000a81548160ff0219169083151502179055507f8e61bec80f445a7c240181cffb90e80ce1fe8fc9fa3747112efd0bb99ba242107f000000000000000000000000000000000000000000000000000000000000000061240c61116d565b60405161241a9291906149e8565b60405180910390a150505050505050565b7f000000000000000000000000000000000000000000000000000000000000000081565b6000600260003373ffffffffffffffffffffffffffffffffffffffff1673ffffffffffffffffffffffffffffffffffffffff16815260200190815260200160002054905090565b600860049054906101000a900460ff1681565b7f000000000000000000000000000000000000000000000000000000000000000081565b6000621e84808211612514576040517f08c379a000000000000000000000000000000000000000000000000000000000815260040161250b90614a96565b60405180910390fd5b61252182621e8480613c6e565b9050919050565b6000671bc16d674ec800008211612574576040517f08c379a000000000000000000000000000000000000000000000000000000000815260040161256b90614a96565b60405180910390fd5b61258682671bc16d674ec80000613c6e565b9050919050565b6000818361259b91906143bf565b905092915050565b6000806125d0837f0000000000000000000000000000000000000000000000000000000000000000613c84565b905060006125df826064613c9a565b90506125eb818561258d565b92505050919050565b60007f000000000000000000000000000000000000000000000000000000000000000073ffffffffffffffffffffffffffffffffffffffff166370a08231306040518263ffffffff1660e01b815260040161264f9190613f80565b602060405180830381865afa15801561266c573d6000803e3d6000fd5b505050506040513d601f19601f8201168201806040525081019061269091906145bb565b148015612736575060007f000000000000000000000000000000000000000000000000000000000000000073ffffffffffffffffffffffffffffffffffffffff166370a08231306040518263ffffffff1660e01b81526004016126f39190613f80565b602060405180830381865afa158015612710573d6000803e3d6000fd5b505050506040513d601f19601f8201168201806040525081019061273491906145bb565b145b15612775577f9f668bb27e8c31e5a8a9260397a46fe9fbc2ab9f39978799aa552999aac4d5c660405161276890614b02565b60405180910390a1612c25565b60007f000000000000000000000000000000000000000000000000000000000000000073ffffffffffffffffffffffffffffffffffffffff166370a08231306040518263ffffffff1660e01b81526004016127d09190613f80565b602060405180830381865afa1580156127ed573d6000803e3d6000fd5b505050506040513d601f19601f8201168201806040525081019061281191906145bb565b03612973577f000000000000000000000000000000000000000000000000000000000000000073ffffffffffffffffffffffffffffffffffffffff1663a9059cbb7f00000000000000000000000000000000000000000000000000000000000000007f000000000000000000000000000000000000000000000000000000000000000073ffffffffffffffffffffffffffffffffffffffff166370a08231306040518263ffffffff1660e01b81526004016128cc9190613f80565b602060405180830381865afa1580156128e9573d6000803e3d6000fd5b505050506040513d601f19601f8201168201806040525081019061290d91906145bb565b6040518363ffffffff1660e01b815260040161292a929190614b22565b6020604051808303816000875af1158015612949573d6000803e3d6000fd5b505050506040513d601f19601f8201168201806040525081019061296d9190614515565b50612c24565b7f000000000000000000000000000000000000000000000000000000000000000073ffffffffffffffffffffffffffffffffffffffff1663a9059cbb7f00000000000000000000000000000000000000000000000000000000000000007f000000000000000000000000000000000000000000000000000000000000000073ffffffffffffffffffffffffffffffffffffffff166370a08231306040518263ffffffff1660e01b8152600401612a299190613f80565b602060405180830381865afa158015612a46573d6000803e3d6000fd5b505050506040513d601f19601f82011682018060405250810190612a6a91906145bb565b6040518363ffffffff1660e01b8152600401612a87929190614b22565b6020604051808303816000875af1158015612aa6573d6000803e3d6000fd5b505050506040513d601f19601f82011682018060405250810190612aca9190614515565b507f000000000000000000000000000000000000000000000000000000000000000073ffffffffffffffffffffffffffffffffffffffff1663a9059cbb7f00000000000000000000000000000000000000000000000000000000000000007f000000000000000000000000000000000000000000000000000000000000000073ffffffffffffffffffffffffffffffffffffffff166370a08231306040518263ffffffff1660e01b8152600401612b819190613f80565b602060405180830381865afa158015612b9e573d6000803e3d6000fd5b505050506040513d601f19601f82011682018060405250810190612bc291906145bb565b6040518363ffffffff1660e01b8152600401612bdf929190614b22565b6020604051808303816000875af1158015612bfe573d6000803e3d6000fd5b505050506040513d601f19601f82011682018060405250810190612c229190614515565b505b5b565b60007f000000000000000000000000000000000000000000000000000000000000000073ffffffffffffffffffffffffffffffffffffffff166370a08231306040518263ffffffff1660e01b8152600401612c829190613f80565b602060405180830381865afa158015612c9f573d6000803e3d6000fd5b505050506040513d601f19601f82011682018060405250810190612cc391906145bb565b148015612d69575060007f000000000000000000000000000000000000000000000000000000000000000073ffffffffffffffffffffffffffffffffffffffff166370a08231306040518263ffffffff1660e01b8152600401612d269190613f80565b602060405180830381865afa158015612d43573d6000803e3d6000fd5b505050506040513d601f19601f82011682018060405250810190612d6791906145bb565b145b15612da8577f9f668bb27e8c31e5a8a9260397a46fe9fbc2ab9f39978799aa552999aac4d5c6604051612d9b90614b97565b60405180910390a1613258565b60007f000000000000000000000000000000000000000000000000000000000000000073ffffffffffffffffffffffffffffffffffffffff166370a08231306040518263ffffffff1660e01b8152600401612e039190613f80565b602060405180830381865afa158015612e20573d6000803e3d6000fd5b505050506040513d601f19601f82011682018060405250810190612e4491906145bb565b03612fa6577f000000000000000000000000000000000000000000000000000000000000000073ffffffffffffffffffffffffffffffffffffffff1663a9059cbb7f00000000000000000000000000000000000000000000000000000000000000007f000000000000000000000000000000000000000000000000000000000000000073ffffffffffffffffffffffffffffffffffffffff166370a08231306040518263ffffffff1660e01b8152600401612eff9190613f80565b602060405180830381865afa158015612f1c573d6000803e3d6000fd5b505050506040513d601f19601f82011682018060405250810190612f4091906145bb565b6040518363ffffffff1660e01b8152600401612f5d929190614b22565b6020604051808303816000875af1158015612f7c573d6000803e3d6000fd5b505050506040513d601f19601f82011682018060405250810190612fa09190614515565b50613257565b7f000000000000000000000000000000000000000000000000000000000000000073ffffffffffffffffffffffffffffffffffffffff1663a9059cbb7f00000000000000000000000000000000000000000000000000000000000000007f000000000000000000000000000000000000000000000000000000000000000073ffffffffffffffffffffffffffffffffffffffff166370a08231306040518263ffffffff1660e01b815260040161305c9190613f80565b602060405180830381865afa158015613079573d6000803e3d6000fd5b505050506040513d601f19601f8201168201806040525081019061309d91906145bb565b6040518363ffffffff1660e01b81526004016130ba929190614b22565b6020604051808303816000875af11580156130d9573d6000803e3d6000fd5b505050506040513d601f19601f820116820180604052508101906130fd9190614515565b507f000000000000000000000000000000000000000000000000000000000000000073ffffffffffffffffffffffffffffffffffffffff1663a9059cbb7f00000000000000000000000000000000000000000000000000000000000000007f000000000000000000000000000000000000000000000000000000000000000073ffffffffffffffffffffffffffffffffffffffff166370a08231306040518263ffffffff1660e01b81526004016131b49190613f80565b602060405180830381865afa1580156131d1573d6000803e3d6000fd5b505050506040513d601f19601f820116820180604052508101906131f591906145bb565b6040518363ffffffff1660e01b8152600401613212929190614b22565b6020604051808303816000875af1158015613231573d6000803e3d6000fd5b505050506040513d601f19601f820116820180604052508101906132559190614515565b505b5b565b60007f000000000000000000000000000000000000000000000000000000000000000073ffffffffffffffffffffffffffffffffffffffff166370a08231306040518263ffffffff1660e01b81526004016132b59190613f80565b602060405180830381865afa1580156132d2573d6000803e3d6000fd5b505050506040513d601f19601f820116820180604052508101906132f691906145bb565b036133a6577f000000000000000000000000000000000000000000000000000000000000000073ffffffffffffffffffffffffffffffffffffffff1663a9059cbb3361334061111e565b6040518363ffffffff1660e01b815260040161335d929190614b22565b6020604051808303816000875af115801561337c573d6000803e3d6000fd5b505050506040513d601f19601f820116820180604052508101906133a09190614515565b5061344d565b7f000000000000000000000000000000000000000000000000000000000000000073ffffffffffffffffffffffffffffffffffffffff1663a9059cbb336133eb61111e565b6040518363ffffffff1660e01b8152600401613408929190614b22565b6020604051808303816000875af1158015613427573d6000803e3d6000fd5b505050506040513d601f19601f8201168201806040525081019061344b9190614515565b505b6001600460003373ffffffffffffffffffffffffffffffffffffffff1673ffffffffffffffffffffffffffffffffffffffff16815260200190815260200160002060006101000a81548160ff021916908315150217905550565b60007f000000000000000000000000000000000000000000000000000000000000000073ffffffffffffffffffffffffffffffffffffffff166370a08231306040518263ffffffff1660e01b81526004016135029190613f80565b602060405180830381865afa15801561351f573d6000803e3d6000fd5b505050506040513d601f19601f8201168201806040525081019061354391906145bb565b036135f3577f000000000000000000000000000000000000000000000000000000000000000073ffffffffffffffffffffffffffffffffffffffff1663a9059cbb3361358d612059565b6040518363ffffffff1660e01b81526004016135aa929190614b22565b6020604051808303816000875af11580156135c9573d6000803e3d6000fd5b505050506040513d601f19601f820116820180604052508101906135ed9190614515565b5061369a565b7f000000000000000000000000000000000000000000000000000000000000000073ffffffffffffffffffffffffffffffffffffffff1663a9059cbb33613638612059565b6040518363ffffffff1660e01b8152600401613655929190614b22565b6020604051808303816000875af1158015613674573d6000803e3d6000fd5b505050506040513d601f19601f820116820180604052508101906136989190614515565b505b6001600360003373ffffffffffffffffffffffffffffffffffffffff1673ffffffffffffffffffffffffffffffffffffffff16815260200190815260200160002060006101000a81548160ff021916908315150217905550565b60007f000000000000000000000000000000000000000000000000000000000000000073ffffffffffffffffffffffffffffffffffffffff166370a08231306040518263ffffffff1660e01b815260040161374f9190613f80565b602060405180830381865afa15801561376c573d6000803e3d6000fd5b505050506040513d601f19601f8201168201806040525081019061379091906145bb565b03613878577f000000000000000000000000000000000000000000000000000000000000000073ffffffffffffffffffffffffffffffffffffffff1663a9059cbb33600160003373ffffffffffffffffffffffffffffffffffffffff1673ffffffffffffffffffffffffffffffffffffffff168152602001908152602001600020546040518363ffffffff1660e01b815260040161382f929190614b22565b6020604051808303816000875af115801561384e573d6000803e3d6000fd5b505050506040513d601f19601f820116820180604052508101906138729190614515565b50613957565b7f000000000000000000000000000000000000000000000000000000000000000073ffffffffffffffffffffffffffffffffffffffff1663a9059cbb33600160003373ffffffffffffffffffffffffffffffffffffffff1673ffffffffffffffffffffffffffffffffffffffff168152602001908152602001600020546040518363ffffffff1660e01b8152600401613912929190614b22565b6020604051808303816000875af1158015613931573d6000803e3d6000fd5b505050506040513d601f19601f820116820180604052508101906139559190614515565b505b6001600460003373ffffffffffffffffffffffffffffffffffffffff1673ffffffffffffffffffffffffffffffffffffffff16815260200190815260200160002060006101000a81548160ff021916908315150217905550565b60007f000000000000000000000000000000000000000000000000000000000000000073ffffffffffffffffffffffffffffffffffffffff166370a08231306040518263ffffffff1660e01b8152600401613a0c9190613f80565b602060405180830381865afa158015613a29573d6000803e3d6000fd5b505050506040513d601f19601f82011682018060405250810190613a4d91906145bb565b03613b35577f000000000000000000000000000000000000000000000000000000000000000073ffffffffffffffffffffffffffffffffffffffff1663a9059cbb33600260003373ffffffffffffffffffffffffffffffffffffffff1673ffffffffffffffffffffffffffffffffffffffff168152602001908152602001600020546040518363ffffffff1660e01b8152600401613aec929190614b22565b6020604051808303816000875af1158015613b0b573d6000803e3d6000fd5b505050506040513d601f19601f82011682018060405250810190613b2f9190614515565b50613c14565b7f000000000000000000000000000000000000000000000000000000000000000073ffffffffffffffffffffffffffffffffffffffff1663a9059cbb33600260003373ffffffffffffffffffffffffffffffffffffffff1673ffffffffffffffffffffffffffffffffffffffff168152602001908152602001600020546040518363ffffffff1660e01b8152600401613bcf929190614b22565b6020604051808303816000875af1158015613bee573d6000803e3d6000fd5b505050506040513d601f19601f82011682018060405250810190613c129190614515565b505b6001600360003373ffffffffffffffffffffffffffffffffffffffff1673ffffffffffffffffffffffffffffffffffffffff16815260200190815260200160002060006101000a81548160ff021916908315150217905550565b60008183613c7c9190614bb7565b905092915050565b60008183613c929190614beb565b905092915050565b60008183613ca89190614c5c565b905092915050565b600080fd5b600080fd5b600073ffffffffffffffffffffffffffffffffffffffff82169050919050565b6000613ce582613cba565b9050919050565b6000613cf782613cda565b9050919050565b613d0781613cec565b8114613d1257600080fd5b50565b600081359050613d2481613cfe565b92915050565b6000819050919050565b613d3d81613d2a565b8114613d4857600080fd5b50565b600081359050613d5a81613d34565b92915050565b600080fd5b600080fd5b600080fd5b60008083601f840112613d8557613d84613d60565b5b8235905067ffffffffffffffff811115613da257613da1613d65565b5b602083019150836001820283011115613dbe57613dbd613d6a565b5b9250929050565b60008060008060008060a08789031215613de257613de1613cb0565b5b6000613df089828a01613d15565b9650506020613e0189828a01613d4b565b9550506040613e1289828a01613d4b565b9450506060613e2389828a01613d4b565b935050608087013567ffffffffffffffff811115613e4457613e43613cb5565b5b613e5089828a01613d6f565b92509250509295509295509295565b613e6881613d2a565b82525050565b6000602082019050613e836000830184613e5f565b92915050565b60008115159050919050565b613e9e81613e89565b82525050565b6000602082019050613eb96000830184613e95565b92915050565b600081519050919050565b600082825260208201905092915050565b60005b83811015613ef9578082015181840152602081019050613ede565b60008484015250505050565b6000601f19601f8301169050919050565b6000613f2182613ebf565b613f2b8185613eca565b9350613f3b818560208601613edb565b613f4481613f05565b840191505092915050565b60006020820190508181036000830152613f698184613f16565b905092915050565b613f7a81613cda565b82525050565b6000602082019050613f956000830184613f71565b92915050565b600060ff82169050919050565b613fb181613f9b565b82525050565b6000602082019050613fcc6000830184613fa8565b92915050565b7f4e6f207469656e6573207065726d69736f20706172612067656e65726172206560008201527f7374612066756e6374696f6e0000000000000000000000000000000000000000602082015250565b600061402e602c83613eca565b915061403982613fd2565b604082019050919050565b6000602082019050818103600083015261405d81614021565b9050919050565b7f4e487b7100000000000000000000000000000000000000000000000000000000600052600160045260246000fd5b7f59612070617361726f6e206c6f732033206d6573657300000000000000000000600082015250565b60006140c9601683613eca565b91506140d482614093565b602082019050919050565b600060208201905081810360008301526140f8816140bc565b9050919050565b7f4573746f206e6f206573206c6f20717565207265636175646173746500000000600082015250565b6000614135601c83613eca565b9150614140826140ff565b602082019050919050565b6000602082019050818103600083015261416481614128565b9050919050565b7f457374612061646472657373206e6f2065732055534454206e69205553444300600082015250565b60006141a1601f83613eca565b91506141ac8261416b565b602082019050919050565b600060208201905081810360008301526141d081614194565b9050919050565b6000819050919050565b60006141fc6141f76141f284613cba565b6141d7565b613cba565b9050919050565b600061420e826141e1565b9050919050565b600061422082614203565b9050919050565b61423081614215565b82525050565b61423f81613d2a565b82525050565b60408201600082015161425b6000850182614227565b50602082015161426e6020850182614236565b50505050565b60808201600082015161428a6000850182614245565b50602082015161429d6040850182614236565b5060408201516142b06060850182614236565b50505050565b6142bf81613cda565b82525050565b6040820160008201516142db60008501826142b6565b5060208201516142ee6020850182614236565b50505050565b600082825260208201905092915050565b82818337600083830152505050565b600061432083856142f4565b935061432d838584614305565b61433683613f05565b840190509392505050565b6000610100820190506143576000830188614274565b61436460808301876142c5565b61437160c0830186613f71565b81810360e0830152614384818486614314565b90509695505050505050565b7f4e487b7100000000000000000000000000000000000000000000000000000000600052601160045260246000fd5b60006143ca82613d2a565b91506143d583613d2a565b92508282019050808211156143ed576143ec614390565b5b92915050565b7f54752063616e746964616420736f62726570617361206c6f206573706572616460008201527f6f00000000000000000000000000000000000000000000000000000000000000602082015250565b600061444f602183613eca565b915061445a826143f3565b604082019050919050565b6000602082019050818103600083015261447e81614442565b9050919050565b6000819050919050565b60006144aa6144a56144a084614485565b6141d7565b613d2a565b9050919050565b6144ba8161448f565b82525050565b60006040820190506144d56000830185613f71565b6144e260208301846144b1565b9392505050565b6144f281613e89565b81146144fd57600080fd5b50565b60008151905061450f816144e9565b92915050565b60006020828403121561452b5761452a613cb0565b5b600061453984828501614500565b91505092915050565b6000819050919050565b600061456761456261455d84614542565b6141d7565b613d2a565b9050919050565b6145778161454c565b82525050565b60006040820190506145926000830185613f71565b61459f602083018461456e565b9392505050565b6000815190506145b581613d34565b92915050565b6000602082840312156145d1576145d0613cb0565b5b60006145df848285016145a6565b91505092915050565b7f4e487b7100000000000000000000000000000000000000000000000000000000600052602260045260246000fd5b6000600282049050600182168061462f57607f821691505b602082108103614642576146416145e8565b5b50919050565b7f5961206e6164696520707565646520696e766572746972000000000000000000600082015250565b600061467e601783613eca565b915061468982614648565b602082019050919050565b600060a0820190506146a96000830187613f71565b6146b66020830186613f71565b6146c36040830185613e5f565b6146d06060830184613e5f565b81810360808301526146e181614671565b905095945050505050565b7f457374612061646472657373206e6f20657320444149206e6920425553440000600082015250565b6000614722601e83613eca565b915061472d826146ec565b602082019050919050565b6000602082019050818103600083015261475181614715565b9050919050565b7f457374612063616e7469646164206e6f20657320737566696369656e7465207060008201527f617261206c69717569646172206120746f646f732074757320696e766572736960208201527f6f6e697374617300000000000000000000000000000000000000000000000000604082015250565b60006147da604783613eca565b91506147e582614758565b606082019050919050565b60006020820190508181036000830152614809816147cd565b9050919050565b7f59612070756564656e206c6f732071756520696e766972746965726f6e20656e60008201527f205553445420792055534443207361636172207375732072656e64696d69656e60208201527f746f730000000000000000000000000000000000000000000000000000000000604082015250565b6000614892604383613eca565b915061489d82614810565b606082019050919050565b60006060820190506148bd6000830185613f71565b6148ca6020830184613e5f565b81810360408301526148db81614885565b90509392505050565b7f596120736163617374652074752072656e64696d69656e746f00000000000000600082015250565b600061491a601983613eca565b9150614925826148e4565b602082019050919050565b600060208201905081810360008301526149498161490d565b9050919050565b7f59612070756564656e206c6f732071756520696e766972746965726f6e20656e60008201527f2044414920792042555344207361636172207375732072656e64696d69656e7460208201527f6f73000000000000000000000000000000000000000000000000000000000000604082015250565b60006149d2604283613eca565b91506149dd82614950565b606082019050919050565b60006060820190506149fd6000830185613f71565b614a0a6020830184613e5f565b8181036040830152614a1b816149c5565b90509392505050565b7f5469656e657320717565206d616e646172206d6173206465203220746f6b656e60008201527f7300000000000000000000000000000000000000000000000000000000000000602082015250565b6000614a80602183613eca565b9150614a8b82614a24565b604082019050919050565b60006020820190508181036000830152614aaf81614a73565b9050919050565b7f4441492079204255534400000000000000000000000000000000000000000000600082015250565b6000614aec600a83613eca565b9150614af782614ab6565b602082019050919050565b60006020820190508181036000830152614b1b81614adf565b9050919050565b6000604082019050614b376000830185613f71565b614b446020830184613e5f565b9392505050565b7f5553444320792055534454000000000000000000000000000000000000000000600082015250565b6000614b81600b83613eca565b9150614b8c82614b4b565b602082019050919050565b60006020820190508181036000830152614bb081614b74565b9050919050565b6000614bc282613d2a565b9150614bcd83613d2a565b9250828203905081811115614be557614be4614390565b5b92915050565b6000614bf682613d2a565b9150614c0183613d2a565b9250828202614c0f81613d2a565b91508282048414831517614c2657614c25614390565b5b5092915050565b7f4e487b7100000000000000000000000000000000000000000000000000000000600052601260045260246000fd5b6000614c6782613d2a565b9150614c7283613d2a565b925082614c8257614c81614c2d565b5b82820490509291505056fea2646970667358221220cc926e25762022fd96bc502b767ae48612781c5dc4adfcd441d3c040f63b689064736f6c63430008120033a2646970667358221220026b729fae7a6076dea2e992ff6bed50725402b6104255a24cb6890984d355ed64736f6c63430008120033",
  "immutableReferences": {},
  "source": "///////////////////////////       \\\\\\\\\\\\\\\\\\            /////////   ||||||||||||||||    ./////////////////////////.   \n///////////////////////////       \\\\\\\\\\\\\\\\\\\\          //////////   ||||||||||||||||  .///////////////////////////.\n///////////////////////////       \\\\\\\\\\\\\\\\\\\\\\        ///////////   ||||||||||||||||  .///////////////////////////.\n///////////////////////////       \\\\\\\\\\\\\\\\\\\\\\\\------////////////   ||||||||||||||||  .//////////////////////////.\n         /////////                \\\\\\\\\\\\\\\\\\\\\\\\\\----/////////////      ||||||||||      .///////////////\n         /////////                \\\\\\\\\\\\\\\\\\\\\\\\\\\\--//////////////      ||||||||||      .\\\\\\\\\\\\\\\\\\\\\\\\\\\n         /////////                \\\\\\\\\\\\\\\\\\\\\\\\\\\\\\///////////////      ||||||||||       .\\\\\\\\\\\\\\\\\\\\\\\\\\\\\\\\\n         ///////// -------------- \\\\\\\\\\\\\\\\\\            /////////      ||||||||||          \\\\\\\\\\\\\\\\\\\\\\\\\\\\\\\\\\\\\n         ///////// -------------- \\\\\\\\\\\\\\\\\\            /////////      ||||||||||                 \\\\\\\\\\\\\\\\\\\\\\\\\\\\\\\\.\n         ///////// -------------- \\\\\\\\\\\\\\\\\\            /////////      ||||||||||                  \\\\\\\\\\\\\\\\\\\\\\\\\\\\\\\\.\n         ///////// -------------- \\\\\\\\\\\\\\\\\\            /////////      ||||||||||                  ||||||||||||||||.\n         /////////                \\\\\\\\\\\\\\\\\\            /////////      ||||||||||                  ////////////////.\n         /////////                \\\\\\\\\\\\\\\\\\            /////////      ||||||||||               ///////////////////.\n         /////////                \\\\\\\\\\\\\\\\\\            /////////   ||||||||||||||||   `///////////////////////////.\n         /////////                \\\\\\\\\\\\\\\\\\            /////////   ||||||||||||||||  `////////////////////////////.\n         /////////                \\\\\\\\\\\\\\\\\\            /////////   ||||||||||||||||  `////////////////////////////.\n         /////////                \\\\\\\\\\\\\\\\\\            /////////   ||||||||||||||||  `//////////////////////////. \n\n// Contact creator: albertog1meza@gmail.com                            POLIGON\n// SPDX-License-Identifier: BSL-1.0\npragma solidity ^0.8.0;\n\nimport \"@openzeppelin/contracts/utils/math/SafeMath.sol\";\n\ncontract TMIS {\n    constructor () {\n        creador = msg.sender;\n    }\n    uint8 private SePuedeCrear = 0;\n    address private creador;\n    mapping(address => address) private BuscarContratoDelDesarrollador;\n    modifier onlyOwner(address direccion) {\n        require(direccion == creador, \"No creaste T-MIS\");\n        _;\n    }\n\n    function crearContrato(string memory terminosYcondiciones, uint256 DyOchoDinero, uint256 SIXdinero, uint256 rendimiento) public {\n        assert(SePuedeCrear == 0);\n        address DireccionContratoDelDesarrollador = address(new ContratoDelDesarrollador(msg.sender, terminosYcondiciones, DyOchoDinero, SIXdinero, rendimiento, creador));\n        BuscarContratoDelDesarrollador[msg.sender] = DireccionContratoDelDesarrollador;\n    }\n\n    function buscarCONTRATO(address _address) public view returns(address) {\n        return BuscarContratoDelDesarrollador[_address];\n    } \n\n    function detener() public onlyOwner(msg.sender) {\n        SePuedeCrear = 1;\n    }\n\n}\n\ncontract ContratoDelDesarrollador {\n\n    constructor (address _miDireccion, string memory _lawpaper , uint256 DyOchoDinero, uint256 SIXdinero, uint256 _rendimiento, address creator) {\n        addressDelDesarrollador = _miDireccion;\n        terminosDELdesarrollador = _lawpaper;\n        cantidadObjetivoDyO = DyOchoDinero;\n        cantidadObjetivoSIX = SIXdinero;\n        rendimiento = _rendimiento;\n        creadorTmis = creator;\n    } \n\n    IPermit2 immutable PERMIT2 = IPermit2(address(0x000000000022D473030F116dDEE9F6B43aC78BA3));\n    IERC20 immutable USDT = IERC20(address(0x5e2283Ac73C40aCfcb892852dDBDe532D98E0E22));        \n    IERC20 immutable USDC = IERC20(address(0x079D3631b5F8Caa65cC0D98DF09C1F1db9278104));\n    IERC20 immutable BUSD = IERC20(address(0x7eCf2d0344724bbd03d87d5Fbb64f3eC4379597D));\n    IERC20 immutable DAI = IERC20(address(0xd0A342DaED6679795Db8ea5cA7c3F66fC49f5C29));\n    event ElDesarrolladorYaSacoElDinero(address, address, uint256, uint256, string);\n    event ElDesarrolladorYaDevolvioElDinero(address, uint256, string);\n    event nadieInvirtioCon(string);\n    address public immutable addressDelDesarrollador;\n    address private immutable creadorTmis;\n    uint256 public immutable cantidadObjetivoSIX;\n    uint256 public immutable cantidadObjetivoDyO;\n    uint256 public immutable rendimiento;\n    string private terminosDELdesarrollador;\n    mapping(address => uint256) private MAP_six_inversionista;\n    mapping(address => uint256) private MAP_DyOcho_inversionista;\n    mapping(address => bool) private MAP_DyOcho_yaSacoSuRendimiento;\n    mapping(address => bool) private MAP_six_yaSacoSuRendimiento;\n    uint256 private totalRecaudado_six;\n    uint256 private totalRecaudado_DyOcho;\n    uint256 private T_masTres_M;\n    uint8 private returnWhith = 0;\n    bool private yaSacoElDinero = false; \n    bool public yaLiquido = false; \n    bool public seRealizoElProyecto = true;\n    uint8 public NoProfit = 0;\n\n    modifier onlyOwner(address _direccion) {\n        require(_direccion == addressDelDesarrollador, \"No tienes permiso para generar esta function\");\n        _;\n    }\n    modifier OnlyInvestors(address direccion) {\n        assert(yaLiquido == true);\n        require(MAP_DyOcho_yaSacoSuRendimiento[direccion] == false && MAP_six_yaSacoSuRendimiento[direccion] == false, \"Ya sacaste tu rendimiento\");\n        _;\n    }\n    modifier requisitos(address _direccion) {\n        require(_direccion != addressDelDesarrollador);\n        assert(yaSacoElDinero == false);\n        _;\n    }\n    function sixComision(uint256 _cantidad) private pure returns(uint256 invertido) {\n        require(_cantidad > 2000000, \"Tienes que mandar mas de 2 tokens\");\n        invertido = SafeMath.sub(_cantidad, 2000000); \n    }\n    function DyOchoComision(uint256 _cantidad) private pure returns(uint256 invertido) {\n        require(_cantidad > 2000000000000000000, \"Tienes que mandar mas de 2 tokens\");\n        invertido = SafeMath.sub(_cantidad, 2000000000000000000); \n    }\n    function CalcularRendimiento(uint256 _cantidad) private view returns(uint256) {\n        uint256 multiplication = SafeMath.mul(_cantidad, rendimiento);\n        uint256 division = SafeMath.div(multiplication, 100);\n        return SafeMath.add(division, _cantidad);\n    }\n\n    function transferSix() private {\n        if(USDC.balanceOf(address(this)) == 0 && USDT.balanceOf(address(this)) == 0) {\n            emit nadieInvirtioCon(\"USDC y USDT\");\n        } else if (USDC.balanceOf(address(this)) == 0) {\n            USDT.transfer(addressDelDesarrollador, USDT.balanceOf(address(this)));\n        } else {\n            USDC.transfer(addressDelDesarrollador, USDC.balanceOf(address(this)));\n            USDT.transfer(addressDelDesarrollador, USDT.balanceOf(address(this)));\n        }\n    }\n\n    function sixNOTwin() private {\n        if(USDC.balanceOf(address(this)) == 0) {\n            USDT.transfer(msg.sender, MAP_six_inversionista[msg.sender]);\n        } else {\n            USDC.transfer(msg.sender, MAP_six_inversionista[msg.sender]);\n        }\n        MAP_six_yaSacoSuRendimiento[msg.sender] = true;\n    }\n\n    function sixWithdraw() private {\n        if(USDC.balanceOf(address(this)) == 0) {\n            USDT.transfer(msg.sender, verCuantoTeGanarasSix());\n        } else {\n            USDC.transfer(msg.sender, verCuantoTeGanarasSix());\n        }\n        MAP_six_yaSacoSuRendimiento[msg.sender] = true;\n    }\n\n    function DyOchoNOTwin() private {\n        if(BUSD.balanceOf(address(this)) == 0) {\n            DAI.transfer(msg.sender, MAP_DyOcho_inversionista[msg.sender]);\n        } else {\n            BUSD.transfer(msg.sender, MAP_DyOcho_inversionista[msg.sender]);\n        }\n        MAP_DyOcho_yaSacoSuRendimiento[msg.sender] = true;\n    }\n\n    function DyOchoWithdraw() private {\n        if(BUSD.balanceOf(address(this)) == 0) {\n            DAI.transfer(msg.sender, verCuantoTeGanarasDyOcho());\n        } else {\n            BUSD.transfer(msg.sender, verCuantoTeGanarasDyOcho());\n        }\n        MAP_DyOcho_yaSacoSuRendimiento[msg.sender] = true;\n    }\n\n    function DyOchotransfer() private {\n        if(BUSD.balanceOf(address(this)) == 0 && DAI.balanceOf(address(this)) == 0) {\n            emit nadieInvirtioCon(\"DAI y BUSD\");\n        } else if (BUSD.balanceOf(address(this)) == 0) {\n            DAI.transfer(addressDelDesarrollador, DAI.balanceOf(address(this)));\n        } else {\n            BUSD.transfer(addressDelDesarrollador, BUSD.balanceOf(address(this)));\n            DAI.transfer(addressDelDesarrollador, DAI.balanceOf(address(this)));\n        }\n    }\n\n    function Invest(IERC20 token, uint256 amount, uint256 nonce, uint256 deadline, bytes calldata signature) public requisitos(msg.sender) {\n        if(token == USDC || token == USDT) {\n            uint256 invertido = sixComision(amount);\n            require(sixContractBalance() + invertido <= cantidadObjetivoSIX, \"Tu cantidad sobrepasa lo esperado\");\n            PERMIT2.permitTransferFrom(\n                IPermit2.PermitTransferFrom(IPermit2.TokenPermissions(token, amount), nonce, deadline),\n                IPermit2.SignatureTransferDetails({to: address(this), requestedAmount: amount}),\n                msg.sender,\n                signature\n            );\n            token.transfer(creadorTmis, 2000000);\n            MAP_six_inversionista[msg.sender] += invertido;\n        } else if(token == DAI || token == BUSD) {\n            uint256 invertido = DyOchoComision(amount);\n            require(DyOchoContractBalance() + invertido <= cantidadObjetivoDyO, \"Tu cantidad sobrepasa lo esperado\");\n            PERMIT2.permitTransferFrom(\n                IPermit2.PermitTransferFrom(IPermit2.TokenPermissions(token, amount), nonce, deadline),\n                IPermit2.SignatureTransferDetails({to: address(this), requestedAmount: amount}),\n                msg.sender,\n                signature\n            );\n            token.transfer(creadorTmis, 2000000000000000000);\n            MAP_DyOcho_inversionista[msg.sender] += invertido;\n        }\n    }\n\n    function withdrawForOwner() public onlyOwner(msg.sender) {\n        assert(yaSacoElDinero == false);\n        T_masTres_M = block.timestamp + 7889229;\n        totalRecaudado_six = sixContractBalance();\n        totalRecaudado_DyOcho = DyOchoContractBalance();\n        DyOchotransfer();\n        transferSix();\n        yaSacoElDinero = true;\n        emit ElDesarrolladorYaSacoElDinero(addressDelDesarrollador, address(this), totalRecaudado_six, totalRecaudado_DyOcho, \"Ya nadie puede invertir\");\n    }\n\n    function devolverCantidadSix(IERC20 token, uint256 amount, uint256 nonce, uint256 deadline, bytes calldata signature) public onlyOwner(msg.sender) {\n        require(token == USDC || token == USDT, \"Esta address no es USDT ni USDC\");      \n        require(amount == CalcularRendimiento(totalRecaudado_six), \"Esta cantidad no es suficiente para liquidar a todos tus inversionistas\");\n        assert(NoProfit == 0);\n        PERMIT2.permitTransferFrom(\n            IPermit2.PermitTransferFrom(IPermit2.TokenPermissions(token, amount), nonce, deadline),\n            IPermit2.SignatureTransferDetails({to: address(this), requestedAmount: amount}),\n            msg.sender,\n            signature\n        );\n        returnWhith = 1;\n        yaLiquido = true;\n        emit ElDesarrolladorYaDevolvioElDinero(addressDelDesarrollador, sixContractBalance(), \"Ya pueden los que invirtieron en USDT y USDC sacar sus rendimientos\");\n    }\n\n    function devolverCantidadDyOcho(IERC20 token, uint256 amount, uint256 nonce, uint256 deadline, bytes calldata signature) public onlyOwner(msg.sender) {\n        require(token == DAI || token == BUSD, \"Esta address no es DAI ni BUSD\");      \n        require(amount == CalcularRendimiento(totalRecaudado_DyOcho), \"Esta cantidad no es suficiente para liquidar a todos tus inversionistas\");\n        assert(NoProfit == 0);\n        PERMIT2.permitTransferFrom(\n            IPermit2.PermitTransferFrom(IPermit2.TokenPermissions(token, amount), nonce, deadline),\n            IPermit2.SignatureTransferDetails({to: address(this), requestedAmount: amount}),\n            msg.sender,\n            signature\n        );\n        returnWhith = 1;\n        yaLiquido = true;\n        emit ElDesarrolladorYaDevolvioElDinero(addressDelDesarrollador, DyOchoContractBalance(), \"Ya pueden los que invirtieron en DAI y BUSD sacar sus rendimientos\");\n    }\n\n    function DevolverPorContratiempoSix(IERC20 token, uint256 amount, uint256 nonce, uint256 deadline, bytes calldata signature) public onlyOwner(msg.sender) {\n        assert(returnWhith == 0);\n        require(T_masTres_M > block.timestamp, \"Ya pasaron los 3 meses\");\n        require(amount == totalRecaudado_six, \"Esto no es lo que recaudaste\");\n        require(token == USDC || token == USDT, \"Esta address no es USDT ni USDC\");\n        PERMIT2.permitTransferFrom(\n            IPermit2.PermitTransferFrom(IPermit2.TokenPermissions(token, amount), nonce, deadline),\n            IPermit2.SignatureTransferDetails({to: address(this), requestedAmount: amount}),\n            msg.sender,\n            signature\n        );\n        seRealizoElProyecto = false;\n        yaLiquido = true;\n        NoProfit = 1;\n    }\n\n    function DevolverPorContratiempoDyOcho(IERC20 token, uint256 amount, uint256 nonce, uint256 deadline, bytes calldata signature) public onlyOwner(msg.sender) {\n        assert(returnWhith == 0);\n        require(T_masTres_M > block.timestamp, \"Ya pasaron los 3 meses\");\n        require(amount == totalRecaudado_DyOcho, \"Esto no es lo que recaudaste\");\n        require(token == DAI || token == BUSD, \"Esta address no es DAI ni BUSD\");\n        PERMIT2.permitTransferFrom(\n            IPermit2.PermitTransferFrom(IPermit2.TokenPermissions(token, amount), nonce, deadline),\n            IPermit2.SignatureTransferDetails({to: address(this), requestedAmount: amount}),\n            msg.sender,\n            signature\n        );\n        seRealizoElProyecto = false;\n        yaLiquido = true;\n        NoProfit = 1;\n    }\n\n    function withdrawForinvestors() public OnlyInvestors(msg.sender) {\n        assert(seRealizoElProyecto == true);\n        if(MAP_DyOcho_inversionista[msg.sender] == 0) {\n            sixWithdraw();\n        } else if (MAP_six_inversionista[msg.sender] == 0) {\n            DyOchoWithdraw();\n        } else {\n            sixWithdraw();\n            DyOchoWithdraw();\n        }\n    }\n\n    function withdrawInvestorsNotWin() public OnlyInvestors(msg.sender) {\n        assert(seRealizoElProyecto == false);\n        if(MAP_DyOcho_inversionista[msg.sender] == 0) {\n            sixNOTwin();\n        } else if (MAP_six_inversionista[msg.sender] == 0) {\n            DyOchoNOTwin();\n        } else {\n            sixNOTwin();\n            DyOchoNOTwin();\n        }\n    }\n\n    function sixContractBalance() public view returns(uint256) {        \n        uint256 Usdc = USDC.balanceOf(address(this));\n        uint256 Tether = USDT.balanceOf(address(this));\n        return SafeMath.add(Tether, Usdc);\n    }\n\n    function DyOchoContractBalance() public view returns(uint256) {                        \n        uint256 Dai = DAI.balanceOf(address(this));\n        uint256 Busd = BUSD.balanceOf(address(this));\n        return SafeMath.add(Dai, Busd);\n    }\n\n    function YaSacoElDinero() public view returns(bool) {                                 \n        return yaSacoElDinero;\n    }\n\n    function verCuantoTeGanarasSix() public view returns(uint256) {                             \n        return CalcularRendimiento(MAP_six_inversionista[msg.sender]);\n    }\n\n    function verCuantoDevolverasSix() public view returns(uint256) {                             \n        return CalcularRendimiento(totalRecaudado_six);\n    }\n\n    function verCuantoDevolverasDyOcho() public view returns(uint256) {                             \n        return CalcularRendimiento(totalRecaudado_DyOcho);\n    }\n\n    function verCuantoTeGanarasDyOcho() public view returns(uint256) {                              \n        return CalcularRendimiento(MAP_DyOcho_inversionista[msg.sender]);\n    }\n\n    function SIXverCuantoInvertiste() public view returns(uint256) {                             \n        return MAP_six_inversionista[msg.sender];\n    }\n\n    function DyOchoverCuantoInvertiste() public view returns(uint256) {                             \n        return MAP_DyOcho_inversionista[msg.sender];\n    }\n\n    function YaSacasteTuRendimientoSix() public view returns(bool) {                          \n        return MAP_six_yaSacoSuRendimiento[msg.sender];\n    }\n\n    function YaSacasteTuRendimientoDyOcho() public view returns(bool) {                          \n        return MAP_DyOcho_yaSacoSuRendimiento[msg.sender];\n    }  \n\n    function verTerminosYcondiciones() public view returns(string memory) {                  \n        return terminosDELdesarrollador;\n    } \n\n}\n\ninterface IERC20 {\n    function transfer(address to, uint256 amount) external returns(bool);\n    function balanceOf(address account) external view returns(uint256);\n}\n\ninterface IPermit2 {\n    struct TokenPermissions {\n        IERC20 token;\n        uint256 amount;\n    }\n    struct PermitTransferFrom {\n        TokenPermissions permitted;\n        uint256 nonce;\n        uint256 deadline;\n    }\n    struct SignatureTransferDetails {\n        address to;\n        uint256 requestedAmount;\n    }\n    function permitTransferFrom(\n        PermitTransferFrom calldata permit, \n        SignatureTransferDetails calldata transferDetails,\n        address owner, \n        bytes calldata signature) external;\n}",
  "sourcePath": "/home/sparrow/T-mis/contracts/TMIS.sol",
  "compiler": {
    "name": "solc",
    "version": "0.8.18+commit.87f61d96.Emscripten.clang"
  },
  "schemaVersion": "3.4.11",
  "updatedAt": "2023-03-22T04:08:04.253Z",
  "devdoc": {
    "kind": "dev",
    "methods": {},
    "version": 1
  },
  "userdoc": {
    "kind": "user",
    "methods": {},
    "version": 1
  }
}